:1000000000800020BD01000039DA0000F5D90000B1
:10001000F5D90000F5D90000F5D90000F5D90000A8
:10002000F5D90000F5D90000F5D9000039DA000053
:1000300039DA0000F5D900007105010075050100ED
:1000400039DA000039DA000039DA000039DA000064
:1000500039DA000039DA000039DA000039DA000054
:1000600039DA000039DA000039DA000039DA000044
:1000700039DA000039DA000039DA000039DA000034
:1000800039DA000039DA000039DA000039DA000024
:1000900039DA000039DA000039DA000039DA000014
:1000A000C9B30000D5B3000039DA000039DA000026
:1000B00039DA000039DA000039DA000039DA0000F4
:1000C00039DA000039DA000039DA000039DA0000E4
:1000D00039DA000039DA000039DA000039DA0000D4
:1000E00039DA000039DA000039DA000039DA0000C4
:1000F00039DA000039DA000039DA0000FDE90000E1
:1001000039DA000045F1000039DA000039DA000080
:1001100039DA000039DA000039DA000039DA000093
:1001200039DA000039DA000039DA000039DA000083
:1001300039DA000039DA000039DA000039DA000073
:1001400039DA000039DA000039DA000039DA000063
:10015000C1D20000DDD20000F9D2000015D30000AA
:1001600039DA0000C1F4000039DA000039DA0000A1
:1001700039DA000039DA000039DA000039DA000033
:1001800039DA000039DA000039DA000039DA000023
:1001900039DA000039DA000039DA000039DA000013
:1001A00039DA000039DA000039DA000039DA000003
:1001B00039DA000039DA000039DA0000574B4CF226
:1001C000205210B5DA814DF62812DA8100BF00BF47
:1001D0000DF036FC524B4FF010621A63514A9A638D
:1001E000514ADA63514A136913F4807303D153619E
:1001F0004FF4A85313614E4B9A78110703D59A78A0
:1002000042F008029A704B4B4B482A221A704B4B13
:10021000DA1C121AC11E22F00302994288BF002282
:1002200047490DF013FB474B4748DA1C121AC11E11
:1002300022F00302994288BF0022002112F01CF92B
:10024000424943484FF4DE720DF000FB414B424AF5
:10025000802103F8011B9342FBD14FF0E0233C4A7D
:10026000C3F8082D3D4B8A221A70A3F5805324222F
:100270005A70A0221A709A799207FCD59A79D406FE
:10028000FCD4374B9A7902F00C02082AFAD10322E7
:100290001A7140225A719A799006FCD5304A9379A6
:1002A0005906FCD51E4B2F4959640221996420211F
:1002B0001170917901F00C010C29FAD12A4A5A6087
:1002C0004FF0E023294A5A6100229A6107221A61FD
:1002D000274AC3F8202D62B60DF00EFD134B5B6963
:1002E000DA0705D523480DF0FBFC234B234ADA61DE
:1002F000234B1B785B0609D51F4C204BE2699A42C1
:1003000004D11C480DF0ECFC0023E3610DF09EFBD2
:1003100012F094F90DF092FAFEE700BF00200540BC
:1003200000800440823F04000100002B00D0034005
:1003300000D0074000E007404088FF1F5894FF1F8F
:10034000FC5F0100B89FFF1F5894FF1F00000000D2
:100350000082FF1F00E400E05FE400E00050064080
:100360000040064000000301C0100500FF760100B8
:100370000000202034C5D46800E00340A5C3945A8F
:1003800000F00740FFFFFFFFFFFFFFFFFFFFFFFF42
:10039000FFFFFFFFFFFFFFFFFFFFFFFFFFFFFFFF6D
:1003A000FFFFFFFFFFFFFFFFFFFFFFFFFFFFFFFF5D
:1003B000FFFFFFFFFFFFFFFFFFFFFFFFFFFFFFFF4D
:1003C000FFFFFFFFFFFFFFFFFFFFFFFFFFFFFFFF3D
:1003D000FFFFFFFFFFFFFFFFFFFFFFFFFFFFFFFF2D
:1003E000FFFFFFFFFFFFFFFFFFFFFFFFFFFFFFFF1D
:1003F000FFFFFFFFFFFFFFFFFFFFFFFFFFFFFFFF0D
:10040000FFFFFFFFFFFFFFFFFFFFFFFFDEF9FFFF23
:100410000548064B1B1AD90F01EBA301491002D066
:10042000034B03B1184770475894FF1F5894FF1FA0
:100430000000000008B5054B1BB105490548AFF3A6
:100440000080BDE80840FFF7E3BF00BF00000000E8
:100450005894FF1FF45F010038B504460846207029
:100460000A4910461D4611F0B5F801464FF07E507E
:1004700011F064F9064911F0ADF8E560606025619E
:1004800065610DF085FEE061204638BDDB0FC94097
:100490000024744938B50446084620700A491046BD
:1004A0001D4611F097F801464FF07E5011F046F9C5
:1004B000064911F08FF8E5606060256165610DF017
:1004C00067FEE06138BD00BFDB0FC94000247449FE
:1004D000037810B50446032B21D8DFE803F0191E7A
:1004E0001102C168406910F06BFF0E490346606855
:1004F0001C4611F023F90146204611F01FF910BDEA
:100500000849406811F01AF9E16811F063F810BD6C
:10051000C168406910F054FF10BDC06810BD0020D4
:1005200010BD00BF00247449F8B504460E460DF016
:100530002FFEE3690546C01A10F0F8FFE768A061D6
:100540000146E56160686661276111F0F7F80146D0
:10055000A0600E4811F0F2F810F0B6FD0546014615
:100560004FF07E5010F02CFF314611F033F8294641
:100570000646384611F02EF80146304610F022FFAC
:10058000E0602046BDE8F840FFF7A2BF000080BF52
:10059000036818470B680360704700BF0B6803606F
:1005A000704700BF704700BF10B504460CF03CFE1A
:1005B000204610BDF8B5044606981D460F46561A4B
:1005C00011F0CEF9401BF6B1A4EB070C002800FB9C
:1005D0000CFC06EBD6730ADB0CEB630C0CFB06F38E
:1005E000002B9CFBF6FC0CEB050011DBF8BDACEB23
:1005F000630C0CFB06F3002B9CFBF6FC0CEB0500DC
:10060000F4DB0130F8BD00EBD07005EB6000F8BD05
:100610000138F8BDBDF800C0521AACEB030C1CD079
:10062000401ABCF1000F0CFB00F002EBD27109DBA9
:1006300000EB610000FB02F1002990FBF2F018448E
:1006400010DB7047A0EB610000FB02F1002990FB7A
:10065000F2F01844F5DB013070470CEBDC7C03EB67
:100660006C00704701387047DDF800C0521AACEBDF
:10067000030C1CD0401ABCF1000F0CFB00F002EB85
:10068000D27109DB00EB610000FB02F1002990FB55
:10069000F2F0184410DB7047A0EB610000FB02F1A0
:1006A000002990FBF2F01844F5DB013070470CEBA9
:1006B000DC7C03EB6C0070470138704708B50E20F6
:1006C0000CF0B6FF1B4B1B88012B2BD01A4B1A8842
:1006D00082421ADC40F6FF739842A8BF1846C2F562
:1006E0007F630F33BBB1811AC1EB013103EBD372CE
:1006F00001EB620101FB03F2002A91FBF3F117DB2E
:10070000BDE8084028200DF049BBC2F57F630F33D8
:100710001046002BE7D1BDE8084040F2FF712820C9
:100720000DF03CBB0146BDE8084014200DF036BB7F
:100730000139E5E7E895FF1FA695FF1F38B50B883F
:10074000182B0D46044607D1294B1B7805EB4305B2
:100750006B88182B14D138BD0344A3F118007F28EF
:1007600023DD244A973BA2FB0312D20802EB42028C
:10077000A3EB820303F17300C0B208F079FAE3E758
:100780001C44A4F118007F281EDD1A4B973CA3FBE4
:100790000423DB0803EB4303A4EB830404F173009D
:1007A000BDE83840C0B208F063BA0028E4DA114A64
:1007B000C3F11803A2FB0312D20802EB4202A3EB1F
:1007C0008203C3F10C00D7E70028E9DA094BC4F132
:1007D0001804A3FB0423DB0803EB4303A4EB83040B
:1007E000C4F10C00C0B2BDE8384008F041BA00BF07
:1007F0005F89FF1FABAAAAAA38B50C46054634F894
:10080000023B182B1DD134480378013303F0030257
:100810000270134634F81220182A28D14FF0040C25
:10082000591C032BCAB215BF1346224604EB4202E1
:10083000002303701288182A19D1BCF1010CEFD1E2
:1008400038BD0344A3F118007F2827DD234A973BD6
:10085000A2FB0312D20802EB4202A3EB820303F1D4
:1008600073001F4BC0B2197808F0C4F9CBE71544E8
:10087000A5F118007F2820DD184B973DA3FB052329
:10088000DB0803EB4303A5EB830505F17300144B71
:10089000C0B21978BDE8384008F0ACB90028E0DAF9
:1008A0000E4AC3F11803A2FB0312D20802EB420264
:1008B000A3EB8203C3F10C00D3E70028E7DA074B70
:1008C000C5F11805A3FB0523DB0803EB4303A5EBE8
:1008D0008305C5F10C00DAE75F89FF1FABAAAAAA5E
:1008E0008697FF1F38B50F200EF0F0FC174B184904
:1008F0001B880860C0F53B6208329A4217DB154935
:100900000988C81A20D08A42D4BFC3EB0203C3EBC4
:100910000103C3EBC31300EBD07203EB620404FBCF
:1009200000F3002B94FBF0F402DA013C00E0002419
:10093000094D2B68A34200D138BD084BE1B21878AD
:1009400008F01AF92C6038BD3F24F1E79496FF1F98
:100950008C96FF1F8A96FF1FC896FF1F8696FF1F63
:1009600038B51B4B1B7803B315200CF061FE194BF7
:10097000194A1B88106083421BDC184A1288D11A5E
:1009800024D08242D4BFC3EB0203C3EB0003C3EB0A
:10099000C31301EBD17203EB620404FB01F3002BE0
:1009A00094FBF1F406DA013C04E011200EF08EFC19
:1009B000DDE700240A4D2B68A34200D138BD094B66
:1009C000E1B2187808F0D8F82C6038BD3F24F1E780
:1009D0006495FF1F2697FF1F6895FF1F2497FF1F31
:1009E000B096FF1F6095FF1FF8B5724B724C1B88C5
:1009F000C31A054684FB0304D817C0EB640000EB60
:100A00004000A3EB800303EB4303980001EB830456
:100A100008582844AAB17F285CDD684B7F38A3FBC7
:100A20000023DB0803EB4303A0EB83007330644F28
:100A3000644E3978C0B208F0DDF83388022B57D8FD
:100A4000F8BD7F2838DD5D4B7F38A3FB0023DB0832
:100A500003EB4303A0EB830073305A4EC0B208F09F
:100A600007F93388022BEBD9606828447F2840F3CC
:100A70009280524B7F38A3FB0023DB0803EB430338
:100A8000A0EB83007330C0B208F0F2F83388032B78
:100A9000D6D9A06828447F286FDD484B7F38A3FB58
:100AA0000023DB0803EB4303A0EB83007330BDE8B6
:100AB000F840C0B208F0DCB80028CEDA3F4B404224
:100AC000A3FB0023DB0803EB4303A0EB8300C0F18F
:100AD0000C00C2E70028AADA384B4042A3FB0023EF
:100AE000DB0803EB4303A0EB8300C0F10C009EE79F
:100AF000606828447F2832DD304B7F38A3FB002319
:100B0000DB0803EB4303A0EB830073303978C0B2FA
:100B100008F070F83388032B92D9A06828447F2806
:100B20000FDD264B7F38A3FB0023DB0803EB4303D9
:100B3000A0EB830073303978C0B2BDE8F84008F00C
:100B400059B80028F7DA1D4B4042A3FB0023DB080D
:100B500003EB4303A0EB8300C0F10C00EBE700289C
:100B6000D4DA164B4042A3FB0023DB0803EB43031C
:100B7000A0EB8300C0F10C00C8E7002897DA0F4B08
:100B80004042A3FB0023DB0803EB4303A0EB8300FD
:100B9000C0F10C008BE70028BFF675AF074B404251
:100BA000A3FB0023DB0803EB4303A0EB8300C0F1AE
:100BB0000C0068E76096FF1FABAAAA2AABAAAAAAF4
:100BC0008697FF1F6296FF1F08B51A4B1B7833B339
:100BD00015200CF02DFD184B184A1B781060DBB166
:100BE000174B1B8883421EDC164A1288D11A1ED06E
:100BF0008242D4BFC3EB0203C3EB0003A3EB830326
:100C000001EBD172A3EB620303FB01F2002A93FB19
:100C1000F1F3B4BF043305330B4A136008BD112050
:100C20000EF054FBD7E7084A0023136008BD0323E6
:100C3000F2E700BF6495FF1F4096FF1F6895FF1FF6
:100C40002697FF1F2497FF1F4496FF1F2DE9F843A7
:100C5000974B1B88013B0446092B3CD8DFE803F087
:100C60000A10161C22282E3D4205BDE8F843914982
:100C7000FFF764BDBDE8F8438F490022FFF7B4BE1B
:100C8000BDE8F8438D490022FFF7AEBEBDE8F8434A
:100C90008B490022FFF7A8BEBDE8F843894900222E
:100CA000FFF7A2BEBDE8F84387490022FFF79CBECC
:100CB000BDE8F84385490022FFF796BE844D854E76
:100CC0002B88A3B184493288098803318A420EDC1B
:100CD0001344022B48DCBDE8F883BDE8F8437F49A4
:100CE000FFF72CBDBDE8F8437D49FFF727BD7D4ADE
:100CF0007D4912887D4FA21A81FB021C7C49D017C6
:100D00000988C0EB6C0000EB4000A2EB800201EB15
:100D1000C101090102EB420201EB8202A3EB830352
:100D2000B858204400EB83007F2812DC00280ADA40
:100D3000704B4042A3FB0023DB0803EB4303A0EB13
:100D40008300C0F10C00C0B207F092FF32882B88FC
:100D5000BEE7684B7F38A3FB0023DB0803EB4303AC
:100D6000A0EB83007330EEE7DFF878915E49B9F8C5
:100D70000030DFF87C815D4FE31A81FB0321DA1735
:100D8000C2EB610202EB4202A3EB820303EB4302DC
:100D9000B8F8003003EBC3031B0103EB82033B44B1
:100DA000586820447F2858DD524B7F38A3FB00232E
:100DB000DB0803EB4303A0EB83007330C0B207F002
:100DC00057FF33882A881344032B84DDB9F8003099
:100DD0004548B8F80020E31A80FB0310D917C1EB8F
:100DE000600101EB410102EBC202A3EB810312019E
:100DF00003EB430302EB83031F44B86820447F28BE
:100E000039DD3C4B7F38A3FB0023DB0803EB4303B6
:100E1000A0EB83007330C0B207F02AFF33882A8822
:100E20001344042B7FF757AF2B4B1B88012B7FF408
:100E300052AFA4F10C037F2B2BDD2E4AA4F18B03C0
:100E4000A2FB0312D20802EB4202A3EB820373332C
:100E5000D8B2BDE8F84307F00BBF0028AEDA254B47
:100E60004042A3FB0023DB0803EB4303A0EB83001A
:100E7000C0F10C00A2E70028CDDA1E4B4042A3FBD4
:100E80000023DB0803EB4303A0EB8300C0F10C005D
:100E9000C1E7002BDCDA174AC4F10C03A2FB0312F2
:100EA000D20802EB4202A3EB8203C3F10C03CFE7AB
:100EB0001C97FF1F5897FF1F602C0100D02B0100CB
:100EC000282B010080350100F034010010360100AC
:100ED0002A96FF1F6296FF1F2C96FF1F4097FF1F49
:100EE0004C97FF1F6096FF1FABAAAA2A8832010009
:100EF0002E96FF1FABAAAAAA2DE9F843964B1B8892
:100F0000013B0446092B3CD8DFE803F00A10161C0D
:100F100022282E3D4205BDE8F8439049FFF76CBCFE
:100F2000BDE8F8438E490122FFF75EBDBDE8F843F6
:100F30008C490122FFF758BDBDE8F8438A490122D8
:100F4000FFF752BDBDE8F84388490122FFF74CBDC9
:100F5000BDE8F84386490122FFF746BDBDE8F843E6
:100F600084490122FFF740BD834A844B12881988C7
:100F7000551891B1824B1B8803339A420DDC022D28
:100F800048DCBDE8F883BDE8F8437E49FFF734BC90
:100F9000BDE8F8437C49FFF72FBC7C4B7C4F1B8896
:100FA0007C4EE31A87FB03277B4AD8171288C0EBD5
:100FB000670000EB4000A3EB800302EBC2021201CA
:100FC00003EB430302EB8303A1EB8101F0582044C0
:100FD00000EB81007F2812DC00280ADA6F4B4042C8
:100FE000A3FB0023DB0803EB4303A0EB8300C0F16A
:100FF0000C006B4BC0B2197807F0FCFDBFE7674BE4
:101000007F38A3FB0023DB0803EB4303A0EB830043
:101010007330EEE7DFF874915D49B9F80030DFF81E
:1010200078815C4EE31A81FB0321DA17C2EB61027F
:1010300002EB4202A3EB820303EB4302B8F8003059
:1010400003EBC3031B0103EB8203334458682044C2
:101050007F2856DD514B7F38A3FB0023DB0803EBD1
:101060004303A0EB830073304D4FC0B2397807F0D3
:10107000C1FD032D85D0B9F800304548B8F80020EF
:10108000E31A80FB0310D917C1EB600101EB4101AA
:1010900002EBC202A3EB8103120103EB430302EB59
:1010A00083031E44B06820447F2838DD3B4B7F38E3
:1010B000A3FB0023DB0803EB4303A0EB83007330A7
:1010C0003978C0B207F096FD042D3FF45AAF2C4B8F
:1010D0001B88012B7FF455AFA4F10C037F2B2CDD73
:1010E0002E4AA4F18B03A2FB0312D20802EB4202A8
:1010F000A3EB820373333978D8B2BDE8F84307F025
:1011000079BD0028B0DA254B4042A3FB0023DB0861
:1011100003EB4303A0EB8300C0F10C00A4E700281D
:10112000CEDA1E4B4042A3FB0023DB0803EB430354
:10113000A0EB8300C0F10C00C2E7002BDBDA174AFA
:10114000C4F10C03A2FB0312D20802EB4202A3EB90
:101150008203C3F10C03CEE71C97FF1F5897FF1FB4
:10116000602C0100D02B0100282B010080350100EC
:10117000F0340100103601006296FF1F2A96FF1F0F
:101180002C96FF1F4097FF1F4C97FF1F6096FF1F75
:10119000ABAAAA2A883201002E96FF1FABAAAAAAE0
:1011A0008697FF1F10B50C8884422DD203F10043AF
:1011B000013B31F81340844223D9B1F802C0844581
:1011C00038BF012324D20133DBB29E4631F813C06D
:1011D00060454FEA4304F6D8604517D00EF1004E43
:1011E0000EF1FF3E135B31F81E1032F81E20401A3C
:1011F0009B1A03FB00F0ACEB010C90FBFCF01044DD
:1012000010BD32F8130010BD108810BD105B10BD6A
:1012100002244FF0010EDFE7204B1B880C2B30D847
:101220001F4982B230B551F8235042B343F6FE73E2
:101230009A4227D8B2F5806F29D31A4C0123013383
:10124000DBB2194634F813E072454FEA430CF6D886
:10125000724519D001F100410139124B35F81140A6
:1012600033F8113035F80C2080B2C01A121B00FB85
:1012700002F2AEEB030392FBF3F3181930BD28889A
:1012800030BD7047288C30BD35F80C0030BD40F2C1
:10129000FF3E4FF0020C0121DAE700BFC495FF1FAB
:1012A000C4360100A03601002DE9F0435C4B83B049
:1012B000186810F03BF95B4B0446188810F032F9BF
:1012C0000146204610F086F9574910F037FA10F021
:1012D00047FB564B1A88002A73D04042544B55495D
:1012E0001B680C88544A9C42168825465CDCB34235
:1012F000A8BF33461844A0425ADA504B1C60B5428E
:10130000A8BF3546331B6BD0281B03EBD372C0EB51
:10131000803000EB620000FB03F2002A90FBF3F048
:101320007BDBFFF779FF464B1F88464BC0F3C6199E
:1013300009FB07F71B887F2F8046A8BF7F273BB19B
:1013400000933246002321462846FFF763F90346FF
:101350003D4A3E4C136023684B4509D03C4B1B88EB
:10136000002B4DD13B4B1B88002B45D1C4F800907E
:10137000394C2368434506D0354B1B885A1F032A36
:1013800031D9C4F80080354C23689F4209D0344BD2
:10139000188828B12E4B334A1B88D35C834237D13F
:1013A000276003B0BDE8F08323461844A042A4DBC5
:1013B000B042A8BF3046214BA0421860A2DB0546D0
:1013C0009DE7294B1B68032B88D0194B19481B68D4
:1013D00004881949A3420E88254617DA2046E7E714
:1013E00041F6FF709DE71F4AD05C203008F07F0176
:1013F000C0B207F0C1FBC4E7484607F071FCB5E78F
:10140000184A4946D05C07F0B7FBABE710466EE7D9
:10141000F9B2C0B207F0B0FBC2E7013881E700BF04
:101420009097FF1FD489FF1F000020428897FF1F5D
:101430002C97FF1FA695FF1FA495FF1FA095FF1FC8
:101440007A95FF1F6E95FF1F7095FF1FB496FF1FC3
:101450007695FF1F7495FF1FBC96FF1FB896FF1F60
:101460007895FF1F5489FF1FA496FF1F2DE9F04FA9
:1014700017208DB00DF02AFFA24A034616201360F4
:101480000DF024FFA04BA14A1B8810600C2B48D004
:101490009F4A00211F2B11704AD19E4BDFF878B272
:1014A0001B789E4E9E4A003B18BF01233370BBF849
:1014B000003052F823509B4B9B491A889B4B9C4809
:1014C0001B880988013A013B30F912A0994A012989
:1014D00032F9134000F03282974B0393974B0593F8
:1014E000DFF85C82974B04930027974B1B88012BF6
:1014F00000F0CB81954B964A1C680893D8F800A061
:10150000944B069207934FF00009934B1B88013BC5
:10151000032B00F26083DFE813F067014101CF0085
:1015200016007C4B1B78002B40F0F181784A137039
:10153000DFF8E4B1794EBBF8002000233370784B1C
:1015400053F82250B7E720460FF0F0FF834910F020
:1015500041F8044648460FF0E9FF814910F03AF897
:10156000014620460FF02EFF10F0FAF9089BDDF837
:10157000148018600446D8F800000FF0D7FF7749B0
:1015800010F028F8034638461F460FF0CFFF744985
:1015900010F020F8014638460FF014FF10F0E0F983
:1015A000C8F80000574BDFF8BCC119686E4BBCF897
:1015B00000801A886D4B6E4F1B883F88DDF818E05D
:1015C000A4EB020C2244079CCEF800C02260039CCE
:1015D000C21A2260049A03448F42136000F35381BD
:1015E00088454046A8BF0846484B1B689F4200F309
:1015F000488198454446A8BF1C468F42C0F22581C9
:101600009F42C0F222815B4F38680FF08FFF534931
:101610000FF0E0FF58490FF0D5FE10F0A1F9A0F54A
:10162000FF531C3B082B386001D84FF40050534B3C
:101630001B68824413B1524B1B689A4443F6FF78EF
:10164000C2455046A8BF404620EAE07038600FF01F
:101650006DFF0346307805FB00F01D460FF066FF76
:101660004FF07A510FF0B6FF014628460FF0A8FE62
:1016700010F076F9434B444D1B784045A8BF4046D7
:1016800020EAE0702860002B00F0D480BAF5005FFB
:1016900000F0D08004F0B0FA3C4B286801221A70A8
:1016A0003B4C2368834204D080B207F04BFB2B688D
:1016B00023600DB0BDE8F08F20460FF037FF3549AD
:1016C0000FF088FF044648460FF030FF32490FF014
:1016D00081FF014620460FF075FE10F041F9089B8E
:1016E000DDF8148018600446D8F800000FF01EFFE3
:1016F00028490FF06FFF034638461F460FF016FFCC
:10170000254945E7E496FF1F1297FF1FE096FF1F4C
:101710005496FF1F1097FF1F7A94FF1F3397FF1FE8
:101720006C89FF1FD889FF1F6295FF1FDA89FF1F91
:10173000B82B0100082E01009897FF1FA897FF1FE4
:101740009097FF1F9C97FF1F8896FF1FA497FF1F6E
:101750009497FF1FA097FF1FD689FF1F9A99193FE3
:10176000CDCCCC3E1497FF1FDC89FF1FDE89FF1F05
:101770001697FF1FA489FF1FCDCC4C454C89FF1F36
:101780000C97FF1F6C98FF1FA089FF1F8E97FF1FEC
:101790006889FF1FCDCC4C3FCDCC4C3E20460FF08E
:1017A000C5FEB7490FF016FF044648460FF0BEFECF
:1017B000B4490FF00FFF014620460FF003FE10F072
:1017C000CFF8089BDDF8148018600446D8F80000B4
:1017D0000FF0ACFEAA490FF0FDFE034638461F4647
:1017E0000FF0A4FEA749D3E620460FF09FFEA649BE
:1017F0000FF0F0FE044648460FF098FEA3490FF0A4
:10180000E9FE014620460FF0DDFD10F0A9F8089B27
:10181000DDF8148018600446D8F800000FF086FE4A
:1018200099490FF0D7FE034638461F460FF07EFE5B
:101830009649ADE6964C2378002B3FF431AF04F087
:10184000D7F90023286823702AE7BBF80030002B63
:101850003FF4D9AE0023424639460095FEF704FF17
:10186000009584464246204639466446FEF7FCFE13
:10187000231A002BB8BF5B42092B00F39E80854FD3
:10188000D3E63C46B9E63846AEE600230993824CDF
:1018900006940F200DF01AFD22688242814640F323
:1018A000DE807E4B0A921B88012B00F070817C4BFE
:1018B0007C4A198814680791284608920FF036FE72
:1018C000794B079953F821100FF084FE0146002050
:1018D000A4EB0A0A0FF074FD0A9A0090D145114654
:1018E00048465246B8BF50460023FEF763FED8F87C
:1018F0000030184400EBD0706C4B07934FEA600A3D
:10190000099BC8F800A0002B40F0B380FDE5DFF88C
:10191000A0B1684ABBF80010674B52F82100674E2F
:1019200001221A70002333700FF000FE4FF07C513B
:101930000FF050FE10F014F80546BCE5604B1B7824
:10194000002B52D111200DF0C1FC5E4B0393D3F854
:1019500000800746B84552DD504B5B4A1B88059214
:10196000012B4F4BB3F8009013682846A3EB0404F7
:1019700000F0C8800FF0DAFD4B4B53F829100FF040
:1019800029FE014600200FF01BFDA74200904146B2
:101990003846DFF838814FF00003B8BF20462246B2
:1019A000FEF708FED8F80030184400EBD070484B22
:1019B00004934010C8F8000097E504F50054013482
:1019C000201A0FF0B3FD4349324F0FF003FE0446D7
:1019D00038680FF0ABFD40490FF0FCFD0146204692
:1019E0000FF0F0FC0FF0BCFF21E615200BF020FEFD
:1019F000344B0393D3F800800746B845ACDC344B36
:101A00000493D3F80080B84568DA244B2E4A1B882B
:101A10000592012B224BB3F80090136828461C4412
:101A200000F0C7800FF082FD1F4B53F829100FF014
:101A3000D1FDA742009041463846DFF890804FF034
:101A40000003A8BF20462246FEF7B4FDD8F80030B8
:101A5000184400EBD0704010C8F8000045E5134B67
:101A600007931A68824255DB0E4BD8F800A01C6819
:101A700008930AEBDA7A4FEA6A0AC8F800A044E54C
:101A80006666663FCDCCCC3D3333733FCDCC4C3D09
:101A90008E97FF1FA489FF1F9497FF1F8C97FF1F2E
:101AA000AC97FF1FA497FF1FC8340100A097FF1F2A
:101AB0007A94FF1F6C89FF1F5496FF1F3397FF1FF7
:101AC0006495FF1F9897FF1FA897FF1F9097FF1F10
:101AD0009C97FF1FCDCCCC3E9A99193F3F4B1B885A
:101AE000012B72D03E4B08931C683E4BDFF8F88008
:101AF00005933E4B06933E4BD8F800A007934FF05A
:101B00000009B6E70FF012FD3A4B53F829100FF019
:101B100061FD3AE7384B0B921B88012B22D0374BE3
:101B20002F4A198814680A91284608920FF0FEFC83
:101B3000304B0A9953F82110A2440FF04BFD0B9A39
:101B40000090D145114648465246A8BF5046002352
:101B5000FEF730FDD8F80030184400EBD0704FEAA3
:101B6000600ACDE6254B1E4A198814680A9128465A
:101B700008920FF0DBFC1F4B0A9953F821100FF06D
:101B800029FD01460020A2440FF01AFCD7E71B4BA9
:101B9000134A198814680791284608920FF0C6FC6A
:101BA000144B079953F82110A4EB0A0A0FF012FD09
:101BB00092E60FF0BBFC0F4B53F829100FF00AFD13
:101BC000014600200FF0FCFB33E70993054BDFF8DB
:101BD000188005935BE6059B1868E3E48896FF1F71
:101BE000A497FF1FA897FF1F9097FF1F9497FF1FB1
:101BF000A097FF1FC83401008C97FF1FAC97FF1FF1
:101C000008B5244B1B885BB3234B1B785BB3234B7A
:101C10001B7843B3224B1B782BB3224B1B7813B397
:101C2000214B1A782AB3214A214822491288008878
:101C300009680244B1EB520F15DD00221A7007F05B
:101C40002DF9642003F0ECFF642003F0E9FF642029
:101C500003F0E6FFBDE808404FF416700CF0B8BA88
:101C6000114A117801B908BD1370BDE8084007F0AA
:101C700015B90E4A0E4810491288008809680244B6
:101C8000B1EB520FEFDD01221A70BDE8084064206D
:101C900003F0C6BF3296FF1F7394FF1F7C94FF1F93
:101CA0007D94FF1F7E94FF1F3096FF1F1497FF1F28
:101CB0001697FF1FE096FF1FE496FF1F38B5114CE3
:101CC000232025780BF0B4FC0F49002241F82500B1
:101CD0000B1F01F1C40053F8041F83420A44FAD1D8
:101CE00023780A490A480133DBB281FB0251322BC7
:101CF0004FEAE272C2EB211208BF00230260237098
:101D000038BD00BF9094FF1F9494FF1F1F85EB51B7
:101D10008C94FF1F2DE9F04F9B4E9C4D3068DFF8EF
:101D2000708285B00FF002FC9A490FF053FC044614
:101D300010200DF0CBFA0FF0F9FB97490FF04AFC99
:101D400021460FF03FFB0FF00BFE2988934C3060CB
:101D500003468B422060B8F800C0084680F2C78076
:101D6000BCEB01060A4600F0CA80521A06EBD67791
:101D7000C2EBC21202EB670202FB06F7002F92FBD6
:101D8000F6F2C0F25D81864F864E32603A88192A9B
:101D900000F0E4801A2A28D01E2A00F09C81012736
:101DA000814EB946814A12888AB1DFF804E2BEF852
:101DB00000E0BEF1030F00F238818B4280F24281D5
:101DC000009200236246FEF725FC7A4B18607A4A9F
:101DD0003388108850EA030113D1784B1A78002A0F
:101DE00040F01A8205B0BDE8F08F754A6E4E127849
:101DF000002A0BBF012700274FF000094FF001090F
:101E0000D0E72988D4F800C061457ADCDFF8ACE17E
:101E10009EF800A0BAF1000F34D14FF0010A042857
:101E20008EF800A02ED1002F40F0C4813388002B03
:101E3000D8D0B9F1000FD5D022682888B8F80010A2
:101E4000904200F3AA818A42A8BF0A46091A00F00C
:101E5000C481121A01EBD174C2EB8212641004EB3C
:101E6000420404FB01F2002A94FBF1F400DB01348C
:101E7000544D2A68A24203D0E1B2D8B206F07CFEEB
:101E80002C60AFE7012800F03F81022800F0F380CA
:101E90000328CBD14C4B1B88092BC7D0002FC5D0B2
:101EA00023682988B8F80020994240F3A6810B46A0
:101EB000521A00F0A6815B1A02EBD277C3EB8313B0
:101EC0007F1007EB430707FB02F3002B97FBF2F7AA
:101ED00000DB0137DFF8F4B0DBF80030BB4203D0A1
:101EE000F9B24A2006F048FECBF800709EE7634541
:101EF0001A46A8BF6246BCEB01067FF436AF3F220C
:101F000041E72E4A117800293FF46CAF00240128E4
:101F1000147000F0EB80022800F09E80032840F04F
:101F20003081294A1288092A09D047B1274D2A68E9
:101F30002AB121464A2006F01FFE33882C60002B70
:101F40003FF450AFB9F1000F3FF44CAFD8B20021CD
:101F500006F012FE1B4B00221A6043E7DFF8609088
:101F6000114E99F80020AAB3B6F800E0BEF1000FB8
:101F700030D0DFF85CA09AF800B0934540F00F81B4
:101F800001274FF000090DE7F095FF1F0696FF1F90
:101F90000496FF1F9A99193FCDCCCC3EF895FF1FB0
:101FA0001297FF1FF495FF1FFE95FF1F5896FF1F06
:101FB0005696FF1F5C96FF1FFC95FF1F0296FF1FA2
:101FC0001097FF1FC496FF1F7695FF1FC096FF1F37
:101FD0007996FF1FDFF844A29AF800E09645CFD02B
:101FE0000021307806F0C8FD99F8003039888AF869
:101FF00000308B4B1A88002A00F0BD801E2940F06B
:102000000281012799F80030002B60D0DFF814E23C
:102010002988BEF800E02368B8F800C0BEF1030FBD
:1020200008464FF000097FF6C8AE8B420FDA0092E7
:1020300000230A466146FEF7EDFA7B4B1860C6E6C0
:10204000013AA0E66345A8BF63461846B8E6634573
:10205000A8BF63461846EAE7002F3FF470AF734D00
:102060002A68002A3FF46BAF2146042006F084FD65
:1020700033882C6063E7002F3FF4D9AEDFF8ACB1B2
:10208000B8F80000DBF800A084456346A8BF03460B
:10209000401A00F0AD805B1A00EBD0714910C3EB21
:1020A000831301EB430303FB00F1002993FBF0F3DF
:1020B00000DB0133534506D0D9B20420039306F068
:1020C0005BFD5B4A039B1088CBF80030E0E6564A84
:1020D000994613607BE6DFF85C91514B99F80070EC
:1020E0001A88554EB7FA87F77F098BE7002F3FF420
:1020F00026AF4E4D2A68002A3FF421AF214606F054
:102100003BFD33882C601AE7002F3FF48FAEB8F800
:1021100000309C456046A8BF18465B1A6AD0401A3A
:1021200003EBD37AC0EB80104FEA6A0A0AEB400A4D
:102130000AFB03F100299AFBF3FA01DB0AF1010A19
:10214000DFF8E8B0DBF80030534505D05FFA8AF1DC
:10215000012006F011FD364A1088CBF800A00228B5
:102160007FF496AE2B88D4F800C0B8F80000634521
:1021700019468DDC88E71E293FF443AF91460127BD
:1021800025E604287FF4DBAE002F3FF4D8AE2146CD
:10219000402006F0F1FC3388D1E6024656E67F2166
:1021A0005FFA8EF006F0E8FC99F8003039888AF87A
:1021B00000301EE740207F2106F0DEFC1C4A10881C
:1021C00050450CD002287FF463AEDFF860B02B8856
:1021D000DBF800A0D4F800C0C7E7402448E6288810
:1021E000D4F800C0B8F800306045014695DC90E7AF
:1021F00040235FE74FF0400AA2E79342A8BF13468F
:1022000056E6402766E629882368B8F800C00846E5
:1022100001274FF00009C8E51970E3E57996FF1F23
:102220005896FF1F5696FF1F5C96FF1FC096FF1F14
:10223000FC95FF1F1097FF1FFE95FF1F08B5114B60
:102240001B88022B09D0052B07D0032B0DD0042BA4
:1022500013D00D4B01221A7008BD7F21412006F0DA
:102260008BFC094B01221A7008BD4021092006F0A1
:1022700083FC054B01221A7008BD7F21092006F05E
:102280007BFCE6E72897FF1F1E97FF1F70B5134ED4
:10229000134D3388134C052B16D0298822689142A0
:1022A00009D1022B10D0033B012B11D800210920AA
:1022B00006F062FC0CE0C9B2052006F05DFC338834
:1022C000022B01D0052BEED10021412006F054FC59
:1022D000054A2B8823600021117070BD2897FF1FCD
:1022E0002297FF1FCC96FF1F1E97FF1F774B1B885F
:1022F0001D2B70B500F0A480754B1B78002B3ED1D0
:10230000744B1B88052B00F0CC800025724B1B887A
:10231000022B3AD0042B38D0704B1B88022B61D093
:102320006F4A704B11881A88521A85F30703002AE6
:1023300002FB03F36C4AC0F29D803F3382FB030231
:102340001A44DC17C4EBA214002B0C44C0F2B0807A
:10235000664E674B3460002D1B786BDD002B00F060
:102360009C80644B644D1B88052B06D02B689C42D7
:1023700003D0E1B2052006F0FFFB2C6070BD5D4B81
:102380001D88002DC2D07F2567E05C4B1B78002B99
:102390006CD015200BF04CF9564B594A1B88106035
:1023A000002BB9D0574B1B888342B5DC564A1288A4
:1023B000D11A00F088808242D4BFC3EB0203C3EB82
:1023C0000003C3EBC31301EBD17203EB620303FB06
:1023D00001F2002A93FBF1F36CDB1D443F4B1B8899
:1023E000022B9DD10F200CF071FF424B474A1B88F6
:1023F0001060002B94D0464BC0F53B601B88083022
:1024000098428DDB434A1288D11A56D09042D4BFED
:10241000C3EB0003C3EB0203C3EBC31301EBD172A5
:1024200003EB620303FB01F2002A93FBF1F347DBAA
:102430001D4475E7002B94D0BDE87040FFF726BF20
:102440002C4B1D881DB3344A214B12781B78002A6F
:102450000CBF00257F2503B17F351E4B1B88052B44
:102460007FF454AF2D4B1B681D444FE711200CF037
:102470002DFF91E73F3B82FB03021A44DC17C4EBBC
:10248000A214002B0C44FFF663AF013460E7104B3D
:102490001B78002B3FF434AF38E7FFF7CFFE3468EA
:1024A0005FE7144B1D88002D3FF430AF0025D9E7BE
:1024B000013C4DE7013B1D4490E73F231D442FE7BE
:1024C000013B1D442CE73F231D4487E71297FF1F64
:1024D0003896FF1FFC95FF1F6295FF1F8896FF1F10
:1024E0002297FF1F2097FF1F090402811C96FF1FE0
:1024F0001E97FF1F2897FF1FCC96FF1F6495FF1F95
:102500006895FF1F2697FF1F2497FF1F8C96FF1FBC
:102510009496FF1F8A96FF1F1097FF1FF495FF1FC9
:1025200070B510200CF0D2FEC830B0F57A6FA8BF9D
:102530004FF47A60B0F5FA7FB8BF4FF4FA7000F547
:102540001673B3F57A6F8A4A8A4CA8BF4FF47A6340
:1025500081B222201180238006F082FD2188864CE2
:10256000242006F07DFD0E200BF062F840F6FF728D
:10257000C8309042A8BF104620EAE07000F2DC5359
:1025800081B27E489342A8BF134601800220238077
:1025900006F066FD2188042006F062FD17200CF08D
:1025A00095FE044616200CF091FE8442B8BF044606
:1025B00004F1C800B0F57A6FA8BF4FF47A60B0F5A7
:1025C000FA7FB8BF4FF4FA7000F54873B3F57A6F2D
:1025D0006B4A6C4CA8BF4FF47A6381B20A20118019
:1025E000238006F03DFD2188674C0C2006F038FD65
:1025F0000F200CF06BFEC0F53F610431B1F5FA6FAE
:10260000A8BF4FF4FA61C0F54363B1F5AF6FB8BF2F
:102610004FF4AF61B3F5FA6FA8BF4FF4FA63B3F5A7
:10262000AF6F5A4AB8BF4FF4AF6389B2A42011808C
:10263000238006F015FDA620218806F011FD0B2051
:102640000BF05CFD00287FD011200CF03FFE41F222
:102650005C22C8309042A8BF1046B0F52F7FB8BFAB
:102660004FF42F704A4C81B200F5167349484A4E18
:1026700001809342A8BF13460620238006F0F0FC99
:102680002188082006F0ECFC00244FF4AF75E1B27D
:10269000304608F0A9FE01348542A8BF05460C2C3F
:1026A000F5D101200CF012FE3C493D4AA0F1320365
:1026B00001FB03F36FF46770034482FB03121A44B7
:1026C000DC17C4EBA224002BACBF04F25F1404F5AA
:1026D000AF74AC424FF00000A8BF2C460CF0F6FDE2
:1026E0002E492F4AA0F1320301FB03F36FF4677107
:1026F0000B4482FB03121A44D917C1EBA221002B11
:10270000ACBF01F25F1101F5AF71A142A8BF214634
:1027100014393229B8BF322140F23A70A1F5AF73B3
:1027200000FB03F31F4A204C963B82FB0302DB179E
:10273000A3EB621389B21D4A21803233BDE8704099
:102740002A20136006F08CBC15200AF071FF41F2BC
:102750005C2200F548709042A8BF1046B0F52F7F6C
:10276000B8BF4FF42F700A4C81B200F596637DE735
:102770000696FF1F0496FF1FA495FF1FA695FF1F37
:102780001697FF1F1497FF1F8A96FF1F9496FF1F2F
:102790002497FF1F2697FF1F7897FF1FD4FEFFFF88
:1027A000C70FB38DB5814E1BBE95FF1FD089FF1F8C
:1027B0002DE9F04F0C2095B00AF006FF0C200BF02D
:1027C000FFFB3B49DFF8ECA014200BF007FC3A4973
:1027D0003A4808F065FB022103200BF09DFC022122
:1027E00004200BF099FC022105200BF095FC02213E
:1027F00006200BF091FC01210A200BF08DFC012139
:1028000009200BF089FC01210D200BF085FC012132
:1028100028200BF081FC012114200BF07DFC02210B
:102820000B200BF079FC01210C200BF075FC002132
:102830000C200BF03DFC012121200BF06DFC02214E
:102840001C200BF069FC01211B200BF065FC002112
:102850001B200BF02DFC1C200BF050FCB0FA80F379
:102860005B091A208AF800300BF08CFE1F20002133
:102870000BF04AFE04200BF041FC002800F04E81D2
:1028800005200BF03BFCE8B903200BF037FCC8B97E
:1028900004200BF033FC002800F0DB8106200BF055
:1028A0002DFC074D031E18BF01232B700DE000BF48
:1028B000001B3746AE97FF1F40420F00708BFF1F73
:1028C000BC95FF1FB44D00232B7006200BF016FCA7
:1028D000B0FA80F35B094FF0000BB04A137005F0BB
:1028E00015F82B78002B40F01481584606F0D2FBE7
:1028F000AB4BAC491B88AC4840F23A72A3F5AF73BE
:1029000002FB03F3963B81FB0321DA17A2EB611272
:10291000002BA649D4BF02F1320302F13103A44ACD
:102920000B60A44B12881A7006230093A24A0C2352
:102930005A2108F0BDFD002800F0DA809F4AA04827
:102940001268DFF8809200230121FDF7A3FD0B2020
:102950000BF0D4FB011E0CBF0123002389F80030CB
:1029600000F00581984E994D994FDFF86882002359
:1029700033602B603B6001240F200CF0A7FC3B6808
:1029800003440E203B600AF053FE33680344336077
:1029900099F80030002B00F0B68015200AF048FEB0
:1029A0002B681844286004F0010003F029F9B8F8F6
:1029B0000030002B14BF4B20DC2001340BF008FC4E
:1029C000052CD9D13B6832688349844C08888449F6
:1029D000002BB8BF0333002AB8BF03329210326015
:1029E0002A6809887F4E002AB8BF03329B109210D4
:1029F000A3EB000C3B602A6023607B4F7B4D7C4C3B
:102A0000C7F800C0034433602020531A0A442B60E7
:102A100022600CF05BFC774B00F5FA70186019200F
:102A20000CF054FC744B00F5FA701860BBF1000F09
:102A300040F0AE80B8F80030002B00F09C806F4B67
:102A4000012404201C600BF059FB18B96C4B594A47
:102A50001C7010706B4B1B881C2B7DD06A4C04F1D2
:102A6000C80523200AF0E4FD44F8040F01200BF010
:102A7000AFFBAC42F5D19AF8003023B1634B1B7821
:102A8000002B40F0D380002121200BF011FB604A85
:102A9000604B1078604C187006F0AAFA03F0A8F8A2
:102AA0005E4B049304A90AA802940894FDF772FDF2
:102AB0000AA910A80E94FDF76DFD45F6BF520EA9A8
:102AC00057480AF043FB0E9B10A8DB689847089B09
:102AD0000AA8DB689847029B04A8DB68984715B0F2
:102AE000BDE8F08F04200BF009FB002800F0A38064
:102AF00003200BF003FB0028F4D003200BF0FEFAB8
:102B00000028F5D1EEE711200CF0E0FB2B6818440B
:102B100048E715B0BDE8F04F08F07CB806200BF090
:102B2000EDFA00287FF4ACAE03200BF0E7FA0028A2
:102B30003FF4A6AE05200BF0E1FA00283FF4A0AE6A
:102B400005200BF0DBFA002800F08680124D0023F0
:102B50002B704FF0010BC0E6324B188800283FF471
:102B60007DAF314BC0B2197806F006F876E7112038
:102B70000BF0D2FAF6E64FF4FA7003F051F803F0D6
:102B80003BF805F03DF84FF4AF600BF021FB56E742
:102B9000FFF7C6FC4EE700BFBC95FF1F6496FF1F02
:102BA000BE95FF1FB5814E1B7897FF1FD089FF1F71
:102BB000D696FF1F8A94FF1F708BFF1F6089FF1F2F
:102BC0008095FF1F6495FF1F7C95FF1FA897FF1F2F
:102BD000A497FF1F0896FF1FDC89FF1F9096FF1F19
:102BE000DE89FF1FA097FF1F9497FF1F9897FF1F75
:102BF0009C97FF1FDC96FF1F9896FF1FA496FF1F50
:102C0000EE95FF1F1297FF1F9094FF1FAF97FF1FB6
:102C10007894FF1F8894FF1F182B0100BD06000049
:102C2000D495FF1F8296FF1F8496FF1F012121204C
:102C30000BF03EFA2BE705200BF060FA00287FF43A
:102C400057AF06200BF05AFA00287FF451AF0CF072
:102C500035FC104D287038E603200BF04FFA04467F
:102C600000287FF473AF04200BF048FA034620B924
:102C7000084D4FF0010B2B702FE606200BF03EFAAB
:102C8000044D031E18BF01232B704FF0010B234688
:102C900023E600BFBC95FF1F2DE9F04F944F954EE2
:102CA0008BB007AD0024E1B2304608F09DFB3B88B5
:102CB0000134834294BF002301230C2C05F8013B0F
:102CC000F1D19DF81C309DF81E408B4A9DF82000E4
:102CD0009DF8221013701A19884B9DF824501C700F
:102CE00002440A44864B874E874FDFF82082884C87
:102CF000DFF820A2DFF8209220702A441A70874B58
:102D00009DF81D201A709DF81F20854B32709DF88C
:102D100021203A709DF826201A709DF82320814BBF
:102D200088F800209DF825201A707F4B9DF82720F9
:102D30001A7001208AF8005089F800100CF0C6FAC9
:102D40007A4B9AF80010D3F800A0794BDFF8E4C171
:102D50001A88794B8346D345D4BF4FF0000E4FF00D
:102D6000010E76488CF800E0012A4FF0000C83F841
:102D700000C08CBF4FF0000C4FF0010C80F800C079
:102D800019BB99F80000002800F081812078002804
:102D900000F0AB8104201870DFF8A4916948032A81
:102DA00000F042831A780270D34519DC664B18880C
:102DB0000021F0B1431E042B00F29083DFE813F0F2
:102DC000BE0292026602E10199012078002872D0C9
:102DD00006225C48DFF868911A70D3450270E5DD81
:102DE0005A4B19881829E1D8574B18880C390028F4
:102DF000E0D14A4B35783E78554F1C783F78484BA8
:102E0000A7EB44071B787F1BA6EB860CBC44C3EBE7
:102E10008377C3EB87039C4498F800300CEB430C9A
:102E20004C4B1F883F4B1B786344DFF8FCC09CF879
:102E300000C00CFB0733484F4FF00C0C1CFB023357
:102E40003B602EB1384A127812B1032840F2458116
:102E5000424A43481288DFF80CC1434F0088BCF84F
:102E600000C03F68033A02EB420203EB8202C0EB70
:102E7000C000624438440C3A3C4F0A443C493F8805
:102E80000968C7EBC70739443A4F57F82000024496
:102E9000394850F821100A44002C71D098F80010DD
:102EA00000296DD0002D40F014813449B6FA86F621
:102EB00076090E706DE099F8000090B9012A10D9DA
:102EC0000E480078002800F0EE800B48007810B91A
:102ED000012A00F2508202201870DFF8649019482D
:102EE0005DE705221748DFF858901A7075E700BFB4
:102EF000BE95FF1F7897FF1F7C94FF1F7D94FF1FD7
:102F00003497FF1F7194FF1F7294FF1F7494FF1F6B
:102F10007E94FF1F8094FF1F7F94FF1F7094FF1FFC
:102F20007394FF1F7594FF1F7694FF1FD089FF1FB6
:102F30003C97FF1F1097FF1FAC96FF1FD096FF1FF7
:102F40002096FF1F7896FF1F2896FF1F1297FF1FDE
:102F5000CC89FF1F7E97FF1F2496FF1FAA96FF1F95
:102F60005696FF1F7C97FF1F5C96FF1F6C95FF1FF7
:102F70007095FF1FF02C010068300100E896FF1FDC
:102F8000A549002008701DB1A4490978002974D111
:102F90000025A349D3450D70C4BFA2490B60A249C7
:102FA000A24B098807298CBF01200020187058D92E
:102FB0009F4BA0481B680180032B00F0278200254F
:102FC0009D4B9E4C1D702368934250D09C489D4F52
:102FD00003680293029E9C4B3E6001271F700368AA
:102FE00003939A4B1F88039B9B1BBB422DD9984E82
:102FF000984F33683260D31A3B60002D3BD0924B20
:103000001D78002D5CD12260934D2B68934223D014
:103010000468924F0594059C3E68A41B8C4230D3F3
:10302000D11A00F118828E4C266886EAE674A4EB69
:10303000E6748C4240F33B82864909680029B8BF98
:1030400049428C42B8BF5A1C23E2814B22601A6865
:10305000002DD9D1804B1A60C9F800200BB0BDE813
:10306000F08F74480023194603801D46A8E7754B6E
:1030700073481E68B3E72260ECE7264388D1012538
:1030800087E71A46C9F800200BB0BDE8F08F20781A
:1030900000283FF415AF73480078002840F0D28133
:1030A000012A40F2EA8170480078002800F063812C
:1030B0006E48DFF8BC914FF0010C83F800C06EE65B
:1030C00005680495049D654E0D44356000251D700E
:1030D00099E75149002008705AE7664A1288042A85
:1030E0000CBF023304333B60B2E6012A3FF6E8AE80
:1030F00050E6C2F10602D2B25F4B00925F4A1C78E2
:1031000012785F4B35783E785A4F1B78B7F800E05D
:1031100098F800C0A2EB4402A6EB8607521B3A4483
:10312000C3EB8377C3EB87031344B4FA84F25209E9
:103130000CFB02F203EB4202384B1F78514B1B7819
:1031400003FB0EFE16FB03F3A3EB83030193B5FA17
:1031500085F35B0907FB0323B6FA86F2520914FBD9
:103160000CFC02FB0E33A3EB4C0305FB1733019F52
:10317000DDF800C03B440C22434F12FB0C333B6094
:103180005FE635783C4B3E783C4F1C783F783C4BB3
:10319000DFF8E0C01B78BCF800C0CDF800C0A7EB9A
:1031A0004407A6EB860C7F1B6744C3EB837CC3EB11
:1031B0008C0398F800E03B44B4FA84F77F090EFBD7
:1031C00007F703EB470714FB0EF30193134BDDF8EE
:1031D00000E093F800C02B4B1B7803FB0EFE16FBA0
:1031E00003F3A3EB83030093B5FA85F35B090CFBB0
:1031F0000373B6FA86F77F0907FB0E33019FA3EB33
:103200004703009F05FB1C333B444FF00C0C1E4F43
:103210001CFB02333B6014E6E896FF1F7594FF1F0A
:10322000E996FF1F1897FF1F4896FF1F4096FF1F44
:10323000A496FF1F6489FF1F3A96FF1F7096FF1F19
:10324000E898FF1F6C96FF1FA896FF1FEA95FF1FC7
:103250005096FF1F4C96FF1F3C96FF1F7496FF1F52
:103260004496FF1F7D94FF1F7C94FF1F7896FF1FDD
:103270002096FF1F7E97FF1F7094FF1FCC89FF1FB2
:103280007394FF1F7694FF1F2496FF1F974B35788A
:103290003E78974F1C783F78964BA7EB44071B78F6
:1032A0007F1BA6EB860CBC44052717FB03C7C3EBAB
:1032B000C3031A4498F800C08F4B053707EB4C0C3A
:1032C0001F888E4B1B786344DFF834C29CF800C023
:1032D0000CFB07338B4F57F822208B4F0C331344D2
:1032E0003B60AEE5814B35781C78824B3E781B788D
:1032F000C3EBC3031A447E4B93F800C0ACEB440C01
:10330000A6EB8603ACEB050C9C4498F80030ACF1BE
:10331000020C0CEB430C784B1F88784B1B786344F2
:10332000DFF8DCC19CF800C00CFB0733774F57F87F
:103330002220754F183313443B6082E56B4B357880
:103340003E786B4F1C7897F800C06A4BACEB440C8E
:103350001B78ACEB050CA6EB86076744C3EB837CBC
:10336000C3EB8C031F4498F80030C2F10602D2B2BE
:1033700007EB430C54E5664890F800C0BCF1010F20
:1033800040F29E800AB183F800C0DFF888C1BCF823
:1033900000C0BCF1000F00F09680DFF87CC19CF803
:1033A00000C0BCF1000F40F08E80DFF870C1BCF8A7
:1033B00000C00CF1FF3C1FFA8CFCBCF1060F00F2C0
:1033C0008280DFF85CC19CF800C0BCF1000F7AD0AD
:1033D000DFF850C1DFF85091DCF800C0BCF1010FFC
:1033E0007FF4DDACD9F80050D9F800E04FF00C0CB8
:1033F0009EFBFCFE0CFB1E5C4C4DA5F800C0DFF8EC
:1034000030E14FF0030C8EF800C0C8E4494B1B6854
:10341000002B7FF7D4AD484B48481B780078034316
:103420000CBF01250025CBE52278002A3FF4BAAC79
:1034300000297FF4B7AC0278062A7FF4B3AC0722E8
:103440001A70CAE403218A4219702CD03048DFF880
:10345000D8900A46C1E437490E6886EAE674991A9C
:10346000A4EBE674A14213DA354909680029B8BF14
:1034700049428C420DDA5A1E0BE0254890F800C0F4
:10348000BCF1000F15D00322DFF89C901A70A4E461
:103490009A1B03680693069B2A603B60C9F80020CC
:1034A0000BB0BDE8F08F1A48DFF87C90C3E79A199B
:1034B000EFE7244D95F800C0BCF1000F7FF4F9ADA3
:1034C000DFF864906BE4DFF85CC0DFF85C90DCF858
:1034D00000C0BCF1010F7FF462AC90E7034B35787C
:1034E0003E78094F1C783B68ABE400BF7094FF1F27
:1034F000CC89FF1F7394FF1F7E97FF1F7594FF1FDA
:103500007694FF1FD02D01002496FF1F303001005C
:103510007896FF1FD296FF1F3497FF1F1C97FF1F3F
:103520006297FF1FA496FF1F2096FF1F6096FF1F44
:103530005F89FF1F4496FF1F6997FF1F6897FF1F52
:103540004C96FF1F7C94FF1FA84B1B78002B40F06C
:103550003F812DE9F04F0E2091B00AF069F80DF08F
:10356000E5FF0146A248A34CA34DFCF7DDFFA048B0
:10357000FCF7AEFF0EF0F4F980F30C002060FFF7CB
:103580008BFB2B68012B5DD0022B00F01F85032BDA
:1035900000F08881994C9A4E23689A4C0F930F9BA8
:1035A00022683360991A984A1288013A914200F2CF
:1035B000A883964C22689A1A092A00F2AC83944C8C
:1035C00022689A1A0D2A00F29783924C22689A1A5E
:1035D000252A1CD9904B1B8813B9904B1B780BB133
:1035E000FEF70EFBFEF76AFB8D4B1B881B3B9BB265
:1035F000022B08D88B4B1B782BB18B4B1B7813B14C
:103600002B68012B01D002F01FFB33682360874C2D
:1036100022689A1A502A00F2558385490A689A1A34
:10362000052A03D9834A0B6001201070824A128850
:10363000012A00F0A18205F0CDFB11B0BDE8F04FEA
:1036400005F064B8DFF8F4817D4BB8F800001A7813
:10365000824240F0C5807B4F7B4B38881A7882428B
:1036600004D07A4E3278002A40F01886784A2368CF
:103670001288624C9A4280F2AD8021680A917549A5
:10368000754A0B600A9B136002232B60DFF8CC9114
:10369000DFF8CCA1B9F80030BAF8002013439BB290
:1036A000002B40F083836F4B1E680E2009F0C0FF93
:1036B0006FF454731E44864202DC6B4B00221A7076
:1036C00000200BF003FE694B69491A68694B904270
:1036D0001B88D4BF002601260E70002B00F0A285A7
:1036E00065490B78B34262D0904260DD634B187835
:1036F000002800F05D87624A1778002F40F0568757
:10370000DFF880C1604B8CF80070DFF880A1DFF833
:1037100080C11B788AF800708CF800700127CDF802
:1037200004C0177033B100271770019A1770012277
:103730008AF80020574A92F800E0BEF1000F01F02D
:103740004980554A1778002F41F06181DFF840C168
:103750008CF8007001271770504A1278002A00F088
:103760009D86484F97F800C0BCF1000F41F076816C
:10377000DFF80C8188F800C04FF0010C87F800C01A
:10378000BEF1000F40F08A8603431A4340F086865C
:10379000244B1B78002B40F08686394A13703B4A35
:1037A00013703D4A13703A4A1370364A13700E7004
:1037B0001B4B1B88A3F11B02012A40F23F851D2BE6
:1037C0007FF4E9AE174A364B12780D4E1A70E3E6D5
:1037D00007F09CB8114A1278002A7FF44EAF55E7E3
:1037E000C0B2187005F086F935E700BFBC95FF1F21
:1037F0008095FF1F2C97FF1FA496FF1FE898FF1FBF
:10380000C095FF1FAC95FF1F5089FF1FB095FF1F8C
:10381000B495FF1FB895FF1F3296FF1F3096FF1F0C
:103820001297FF1F1097FF1F7694FF1F8494FF1FAE
:10383000E495FF1FE095FF1FE895FF1F7894FF1F99
:103840008894FF1FD696FF1F8A94FF1FEE95FF1FD7
:10385000A695FF1F6896FF1FA895FF1F7E96FF1F66
:103860008096FF1F7C95FF1F3297FF1FD089FF1F97
:103870006A97FF1F1C97FF1F7A96FF1F7394FF1F05
:103880006997FF1F6897FF1F7494FF1FD496FF1F4F
:103890006297FF1F7094FF1F7297FF1F7194FF1FA5
:1038A0007996FF1FA24B21681A888A4258DDA14BE6
:1038B0001B78002B54D1DFF8809299F800007F2804
:1038C0000BDD7F38A3F15533A3FB0023DB0803EBAB
:1038D0004303A0EB83007330C0B2984B00931B8866
:1038E00089F80000002B41F0C380DFF854A29AF859
:1038F0000030002B00F06D86924F3B78002B00F0DB
:103900006886914EDFF844B24FF0000811E0ABFB3F
:103910000213DB0803EB4303A2EB830202F1730003
:10392000C0B205F0A5F93B7808F10108434540F322
:10393000508699F8000056F8043F18447F28A0F1FB
:103940007F02E4DC0028C0F10002E9DAABFB0213DD
:10395000DB0803EB4303A2EB8302C2F10C00DFE7B9
:103960007B4E33687F2B00F3C884002B0ADA77483C
:103970005B42A0FB0370C00800EB4000A3EB800398
:10398000C3F10C03DFF8B09199F800709F4200F08A
:103990004585704B1B88002B46D16F4B6F491B68C8
:1039A00009889A4241F309801346891A01F05C8024
:1039B0009B1AC3EB833301EBD17203EB620303FB6E
:1039C00001F2002A93FBF1F0C1F21581FDF724FC0E
:1039D000C0F3C6100DF0AAFD614B804618880DF0AB
:1039E000A5FD6049824640460DF0F4FD0146504673
:1039F0000DF0F0FD41460DF0E5FC4FF07E518046A4
:103A00000DF086FF002840F0FF87574940460DF033
:103A10009DFF002841F0B98040460DF0C7FFC3B2BA
:103A2000DFF8488188F800307F2F0ADD474B7F3F61
:103A3000A3FB0723DB0803EB4303A7EB83077337E1
:103A4000FFB2DFF8FCA089F800709AF80030002B74
:103A500040F0F185464B474A029301921B78127859
:103A60001A4340F0BE86354B0093019B1B78002B18
:103A700040F05A879AF80030002B00F0A086009B97
:103A80001B88002B00F0868730687F2840F3C385B1
:103A90002E4A7F38A2FB0012D20802EB4202A0EBB2
:103AA000820073303060002B40F030879AF800308D
:103AB000002B00F08284234F3B78002B00F07D84A4
:103AC000214ACDF80C900023B146DFF8A0809B4638
:103AD000164614E01D4BA3FB0102D20802EB420282
:103AE000A1EB820101F1730098F80010C0B205F05B
:103AF00081F83A780BF1010B5A4540F35B8456F894
:103B0000040FD9F8002010447F28A0F17F01E1DCE8
:103B10000028C0F10001E7DA0C4BA3FB0102D20838
:103B200002EB4202A1EB8201C1F10C00DCE700BF15
:103B3000A695FF1F3096FF1F8994FF1F3097FF1F28
:103B4000D496FF1F4889FF1FA489FF1FABAAAAAA0A
:103B50002096FF1F8497FF1FA095FF1FA495FF1FAE
:103B60008097FF1FCDCCCC3D0000FE428697FF1F03
:103B70007297FF1F6297FF1F7249734A08681268A5
:103B8000A82441F6FF7104FB0011704C183A84FB25
:103B900001042A200C4400FB02F2C817C0EB643079
:103BA0000029ACBFA0F15401A0F1550168480A44B6
:103BB00068490478096868486FF0140505FB042219
:103BC0000260002900F02483644C207898B1644D91
:103BD0002868824200F3A98380F2E186D1F17F0157
:103BE00048BF033189100131401A9042B8BF1046D6
:103BF0002860002222705B4A1288002A00F00F839E
:103C0000594951F82220002A00F04384B3FBF2F115
:103C100002FB1133C3EBC30302EBD27103EB0313BB
:103C200003EB610303FB02F1002993FBF2F34F4A1C
:103C3000B8BF03F1FF3352F82330A3F2FF734C49AE
:103C400008684C4900FB03F303F57D33162203F5A6
:103C5000607302FB03F303F57D3303F5607381FBAF
:103C60000321DA17C2EB61423D49002B0968424B40
:103C7000ACBF0B3A0C3A0A441A60404B40491B88CF
:103C8000404803F27C7302FB03F35B0003F5FC6323
:103C90000A8880FB0310643A1844D917002B4FEAB6
:103CA0004202C1EBE021C0F28585114481F30C0191
:103CB00028200AF073F805F08DF811B0BDE8F04F38
:103CC00004F024BD03F058FE2F4B3049304A0978E8
:103CD0001B7812780B432F4913432F4A0978127827
:103CE0000B4313432D4A1278134300F0808701F0F1
:103CF0008BFF3368236090E4FEF7F8FA33682360A3
:103D000063E4FDF7D1FA33682360254C22689A1AE0
:103D1000092A7FF654AC234FFDF7A8FBFDF7FAFF05
:103D20003B88032B02D1FCF71BFE3B88042B01D1FF
:103D3000FCF74AFF1C4B1B88032B00F0A78333685A
:103D400023603CE4A489FF1F2096FF1F0900028026
:103D50003397FF1F1C96FF1F7497FF1FE095FF1FEF
:103D6000C895FF1FDE95FF1F0C3001002C2E0100AF
:103D7000F495FF1F491B8940CC95FF1FD095FF1F6D
:103D8000DC95FF1F832008826297FF1F6997FF1F42
:103D9000D496FF1F7297FF1F6897FF1F3096FF1F73
:103DA000B095FF1F6295FF1F8896FF1F20200BF024
:103DB0008DFA9B4B02901B68039319200BF086FA37
:103DC000984B994A1B8812881344984A1168984A5C
:103DD000834610688B45D4BF002201225E10B0EBF1
:103DE000530F944B1B6840F339829E424FF00003FF
:103DF000B4BF012018460490ACBF012018460893B8
:103E0000079009930E20CDE9001209F011FC8A4BAE
:103E10008A4A1B68DFF828C205930133802B166895
:103E20000690019A9CF800000099A8BF8023012BFE
:103E3000B8BF0123904200F02D8220680B9081488A
:103E4000DDF82CE0C0F800E020680C900C98A0EBA6
:103E50000E00282812D97C4890F800E0BEF1000F2F
:103E600040F03F828B4540F33F8278494FF0010E8E
:103E700080F800E0087880EA0E0008708CF80020D6
:103E8000734ADFF8D0B11278002A64D09BF8001092
:103E9000914260D03988994200F0B1846E493B80EC
:103EA0006E4B09784FF0010C83F800C0DFF8B0C109
:103EB0006C4B8BF800201B788CF80010002B67D11E
:103EC000029B039A934263DC049B1BB1B9F8003058
:103ED000002B5DD1069AA6F252339A42BFF6E5ABAB
:103EE000BAF80030002B3FF4E0AB079B002B4FD11A
:103EF0005D4B1B8813B1099B002B49D1089B002BFC
:103F00003FF4D3AB594A1378002B7FF4CEABDFF8E4
:103F100060810123137098F80020002A40F0848605
:103F2000544A1278002A40F0B286534A1278002A86
:103F300000F00D87514A1278002A7FF4B6AB504A40
:103F40001278002A3FF4B1AB3A880A323A80434AE9
:103F50001370FFF7AABB4049DFF804C109780029B4
:103F6000A6D09CF800E07145A2D005984B2840F3FC
:103F70004C841833802BB7F800E0A8BF80239E45FF
:103F800096D03B80354B4FF0010E83F800E08FE771
:103F90003C4B18683C4B1A883C4B1B881A443C4BE2
:103FA0001968431C802BA8BF8023012BB8BF0123B5
:103FB000B1EB520FC0F26081A3F149020F2A3FF624
:103FC00074AB483BA8F80030FFF76FBB314A20685C
:103FD0001288824204DB304B1B78002B00F0878173
:103FE0002E4C21680D912E490D9B09685B1A2D49B5
:103FF00009888B4260D800295ED02B4B1988002994
:104000003FF4C9AA294B1B688342B8BF034628481E
:104010009A42008840F3C385264B1A60C9B29EE0DD
:10402000DC96FF1F1497FF1F1697FF1F9896FF1F20
:10403000E496FF1FE096FF1F1897FF1F7C95FF1F58
:104040007B96FF1F3496FF1F3996FF1F3896FF1F80
:10405000E896FF1F7C96FF1FE996FF1FEE95FF1F56
:104060007D96FF1FD896FF1F5E95FF1F3297FF1F9B
:10407000AC96FF1F7094FF1F7194FF1F7294FF1F77
:104080007394FF1F2496FF1F0696FF1F0496FF1FC1
:10409000F895FF1FA695FF1F3096FF1FE898FF1F9A
:1040A000A895FF1F8297FF1F8497FF1F6896FF1F29
:1040B000A495FF1FA095FF1FA24BA3491B68834235
:1040C000B8BF03469A42088800F3FF809F49A04E7C
:1040D00009888342A8BF0346336000299ED19A42D3
:1040E000C8BF134640F3F980811A00F099839B1AE8
:1040F000C3EB833301EBD17203EB620393FBF1F06B
:1041000003FB01F10029C0F25185FDF785F8C0F3EA
:10411000C6100DF00BFA8F4B064618880DF006FA04
:104120008D49074630460DF055FA014638460DF0E8
:1041300051FA31460DF046F94FF07E5106460DF02A
:10414000E7FB002840F03983844930460DF0FEFB40
:10415000002840F01C8430460DF028FCC1B2DFF886
:104160000082804E88F80010FDF79EF830687F28A6
:1041700040F37D817C4B7F38A3FB0023DB0803EBFE
:104180004303A0EB83007330784B00931B883060AF
:10419000002B40F09A81DFF8D8A19AF80030002B6C
:1041A00000F04881734F3B78002B00F04381DFF82B
:1041B000C8B14FF0000914E06B4BA3FB0213DB08FE
:1041C00003EB4303A2EB830202F1730098F80010A3
:1041D000C0B204F00FFD3B7809F101094B4540F3F3
:1041E00029815BF8040F336818447F28A0F17F020F
:1041F000E2DC0028C0F10002E8DA5B4BA3FB02130B
:10420000DB0803EB4303A2EB8302C2F10C00DDE702
:104210005A490A605A4A1288002A7FF4F1AC594B75
:104220001A682AE5584A59491370594A0B70137095
:104230004F49584A0B701370FFF7BABADFF858812C
:1042400098F80030002B37D0544A1278002A40F0FA
:104250007683534F534E3B70FFF79EB99E424FF00B
:104260000003B4BF012018460890ACBF01201846D7
:10427000079309900493C5E5474A1278002A48D16C
:104280003A889A423FF411AA3B80474B01221A70A8
:10429000FFF70BBA4548D0F800E0D5E5C0B218707A
:1042A00004F036FC384A3248394900231370037051
:1042B0000B703370FFF7DAB9394F3B78002B40F0C1
:1042C0007183384E3B70FFF767B9214B1A601F4B63
:1042D000198800297FF4A2AE13468342A8BF034683
:1042E00002E78B453FF7CAAD00210170C6E5012307
:1042F0002F4C2C4E2B60FFF74FB91B487F3BA0FB88
:104300000370C00800EB4000A3EB80037333FFF79A
:1043100039BB4A2840F30E831833802B3A88A8BF54
:1043200080239A42B0D1FFF7C0B9D1F17F0148BFD5
:10433000033100EBA10001309042A8BF1046286075
:1043400057E400BF6896FF1FA495FF1F8497FF1FC7
:10435000A095FF1F8097FF1FCDCCCC3D0000FE42F3
:104360008697FF1F2096FF1FABAAAAAA3097FF1FB0
:10437000D496FF1F4889FF1FA489FF1FC895FF1F00
:10438000DE95FF1FCC95FF1F6997FF1F6297FF1FE8
:104390007297FF1F6897FF1F1097FF1F7694FF1FEC
:1043A0007996FF1FC095FF1FEE95FF1F3496FF1FE4
:1043B000E898FF1F4E46DDF80C90029B1B78002BFF
:1043C00040F04B82019B1B78002B40F04282009B07
:1043D0001B88002B00F03782029A9AF8003012787E
:1043E0001343019A1278134300F0E883B14B1B7812
:1043F000002B51D0B04A1378082B4DD80133DBB2D3
:104400001370AE4A30681268AD49013B821A41F818
:104410002320AC4B21681A8889F800008A42AA4CF4
:10442000BFF6B9A82268A94B0E920E9AA84E1A6040
:10443000FFF7B2B89F4B1B78002B40F0AC80A54B28
:104440001B78002B56D1A44B1B78002B4ED1009B20
:104450001B88002B44D0A14B1B78002B3BD1A04ADA
:104460003168117003239A4E2B60FFF795B800282E
:10447000BFF68AAE9B4B4042A3FB0023DB0803EB55
:104480004303A0EB8300C0F10C007DE6FCF72AFAA1
:1044900055E46B23FFF7D3BB3068BAE7924B1B7828
:1044A000002B3FF484A98C4A1378002B40F0B38290
:1044B000804F8E483B708E4F3B70864F3B70012380
:1044C000137003230370FFF772B998F80010C0B29D
:1044D00004F090FB5FE67F21422004F04DFBBEE735
:1044E00098F80010307804F085FBB4E73078FCF7DA
:1044F00003FDACE73368A3F10C007F2840F3938100
:10450000784A8B3BA2FB0312D20802EB4202A3EBD8
:10451000820303F1730098F80010C0B204F06AFB44
:104520009AF80030002B8ED0634F3B78002B8AD056
:10453000DFF8C091DFF8ACB14FF0000A13E0ABFB3D
:104540000213DB0803EB4303A2EB830202F17300C7
:1045500098F80010C0B204F04DFB3B780AF1010A54
:1045600053457FF770AF326859F8043F1344A3F105
:104570000C007F28A3F18B02E1DC0028C3F10C03BF
:10458000E6DAABFB0312D20802EB4202A3EB820392
:10459000C3F10C00DCE77F21402004F0EDFA474A2C
:1045A000454B3168116000221A7048E700231370F0
:1045B000514B1B78002B3FF4BDA8DFF834A19AF8CB
:1045C0000020002A00F0F58200228AF80020FFF780
:1045D000B1B8404B1B78002B40F062823E4B1B78F9
:1045E000002B40F05882009B1B88002B00F04E826D
:1045F000304B1B78002B40F04482384B1B78002B4B
:1046000040F03A823D4B2F4A216812880020186002
:1046100001232B6002E70028BFF644AA314A40423A
:10462000A2FB0012D20802EB4202A0EB8200C0F112
:104630000C00FFF737BA324B00931B88002B40F079
:104640007F82244B0293244B01931B4F3B78002B1A
:1046500059D0284A0396DFF88CB04FF00008164670
:1046600010E0ABFB0103DB0803EB4303A1EB830189
:1046700001F17300C0B204F0FBFA3B7808F10108C5
:1046800043453FDD99F8000056F8043F18447F2861
:10469000A0F17F01E5DC0028C0F10001EADAABFB04
:1046A0000103DB0803EB4303A1EB8301C1F10C0021
:1046B000E0E700BF6997FF1F4889FF1F6497FF1F4E
:1046C000A889FF1FA695FF1FE898FF1FFC97FF1FF3
:1046D000C095FF1F7297FF1F6297FF1F6897FF1F0C
:1046E0008994FF1FABAAAAAA1097FF1F5F89FF1F1B
:1046F000D496FF1FA489FF1F7494FF1FA095FF1F6E
:104700003097FF1F039E029B1B78002B3FF4ADA93F
:1047100099F80030A3F10C007F2840F31682C04ABC
:104720008B3BA2FB0312D20802EB4202A3EB8203F3
:1047300003F17300C0B204F09BFA9AF80030002B2A
:1047400000F0ED80B74F3B78002B00F05782B64960
:104750000396DFF8CCB24FF000080E4611E0ABFB39
:104760000203DB0803EB4303A2EB830202F17300B5
:10477000C0B204F07DFA3B7808F10108434540F3EC
:10478000078256F8042F99F800301344A3F10C0067
:104790007F28A3F18B02E2DC0028C3F10C03E7DAE7
:1047A000ABFB0302D20802EB4202A3EB8203C3F18C
:1047B0000C00DDE70139FFF778BA0121CFE4019B56
:1047C0001B78029A127813437FF459A9009B1B8827
:1047D000FFF75AB9954A1278002A3EF4D5AFFEF792
:1047E000C0BF934A00921288002A8ED0384604F047
:1047F0003FFA9AF80030002B7FF427AF83E78D4B08
:10480000DFF834C21978FFF753BB243B012BB7F80C
:1048100000E0B8BF01239E457FF4B3ABFFF748BB70
:1048200041F6FF7071E40028BFF675AE7C4AC3F113
:104830000C03A2FB0312D20802EB4202A3EB820399
:10484000C3F10C0067E67D4B3078197804F0D2F99B
:10485000C2E53078FCF750FBB9E53368A3F10C00F2
:104860007F2840F382816E4A8B3BA2FB0312D20861
:1048700002EB4202A3EB820303F17300DFF8BC8179
:10488000C0B298F8001004F0B5F99AF80030002B87
:104890003FF498AD634F3B78002B3FF493AD624AF1
:1048A000CDF80C900023B1469B46164614E05C4BB5
:1048B000A3FB0C12D20802EB4202ACEB820C0CF10F
:1048C000730098F80010C0B204F094F93A780BF134
:1048D000010B5A4540F35F8156F8041FD9F80020B8
:1048E0001144A1F10C007F28A1F18B0CDFDC002822
:1048F000C1F10C01E5DA4A4BA3FB0102D20802EB3D
:104900004202A1EB8201C1F10C00DAE7DFF82C8151
:10491000C0B298F8001004F06DF9FFF7C7B8019B1A
:104920001B78002B3FF44DAF99F80000FCF78EF98F
:10493000FFF7A0B8243B012BB8BF0123A0E4404FF0
:10494000387801F0D5F93F4B1B78002B41D03B88DC
:104950007E2B3ED83C4EDFF8F4903268D9F8001038
:10496000521A0F2A2FD9013399B2394B398018883E
:10497000002845D0C9B2C0B204F0FEF8354F98F80F
:1049800000303268C9F800203B70FEF705BE7F2179
:10499000FFF7E5BB99F8000004F06AF916E72A6012
:1049A000FFF727B9264B284E19886A2004F058FBD8
:1049B00098F800303B70FEF7EFBD8B42A8BF0B4666
:1049C000FEF7F3BF204E234F98F800303B70FEF700
:1049D000E3BD214B1B78002BF4D039880029F1D09E
:1049E000194EDFF868903368D9F800209B1A0F2B16
:1049F000E9D9174B0139188889B239800028B9D113
:104A0000C8B204F06DF9B9E70123FFF709B8002730
:104A10001770FEF7A1BE00231370FEF7C8BE00BFDB
:104A2000ABAAAAAA4889FF1FA489FF1F7194FF1F80
:104A30003097FF1FE996FF1F7D96FF1F8697FF1F88
:104A40008496FF1F7594FF1FC095FF1FA096FF1F40
:104A50008296FF1F7996FF1F7494FF1F4FF0000C82
:104A600087F800C0FEF78CBE41F6FF70FEF7AEBFC0
:104A700004F0FEF8FEF739BF0021422004F07CF874
:104A8000C0E50021402004F077F8B6E599F8000071
:104A900004F0EEF8ACE599F80000FCF7D7F8A2E5D1
:104AA00099F80030A3F10C007F2840F39080B04AC1
:104AB0008B3BA2FB0312D20802EB4202A3EB820360
:104AC00003F17300C0B204F0D3F89AF80030002B61
:104AD0003FF484ADA74F3B78002B3FF47FADDFF868
:104AE00098A2A34E4FF0000811E0A6FB0213DB08CA
:104AF00003EB4303A2EB830202F17300C0B204F0A4
:104B0000B7F83B7808F1010843457FF767AD5AF8DD
:104B1000042F99F800301344A3F10C007F28A3F16F
:104B20008B02E2DC0028C3F10C03E7DAA6FB0312D8
:104B3000D20802EB4202A3EB8203C3F10C00DDE7D3
:104B40008E4B02938E4B019350E60028BFF6F2ADD8
:104B5000874AC3F10C03A2FB0312D20802EB420204
:104B6000A3EB8203C3F10C00E4E50028BFF686AE98
:104B70007F4AC3F10C03A2FB0312D20802EB4202EC
:104B8000A3EB8203C3F10C0078E67F23FEF748BF56
:104B9000039EFEF76ABF4E46DDF80C9012E4984281
:104BA000A8BF1846774B1860FFF738BA0138FFF7EF
:104BB000ACBA734F744A0197FEF7B5BD4FF47A4310
:104BC000013BFDD199F8000004F052F80EE40028F2
:104BD000BFF678AF664AC3F10C03A2FB0312D208FA
:104BE00002EB4202A3EB8203C3F10C006AE700F080
:104BF000FFFFFFF77EB80138FEF7E8BE019B1B7888
:104C0000002B3EF43CAF8FE6604B1B78002B7EF40C
:104C10004CAD059BA3F124015D4B81F34701196065
:104C20005B20C9B203F0A8FF98F80030032B7EF494
:104C30003AADDFF8608198F80020002A7CD1564F09
:104C40003B78002B6CD1514E3378002B5CD1534B09
:104C50001B78002B4CD1524A1380524B1B7853BB0C
:104C6000514B7F221A803A7898F8003013433278FB
:104C700013437EF418AD4D4A7F210720138003F0C3
:104C80007BFF7F210B2003F077FFFEF70CBD434A2B
:104C90001278E2B1404A1278002A7EF406AD3B4A0F
:104CA0001278002A3EF401AD3A880A3A3A80404A26
:104CB0001370FEF7FABC3C4B00227F2107201A80BC
:104CC00003F05AFF7F210B2003F056FFCBE7324A57
:104CD0001278002A7EF4E9AC2C4A1278002A3EF4BD
:104CE000E4AC3A88013A3A80314A1370FEF7DDBCF1
:104CF0002B4B01227F2107201A8003F03DFF7F21EB
:104D00000B2003F039FFA8E7284B04227F2107205E
:104D10001A8003F031FF00210B2003F02DFF96E7EE
:104D2000224B02227F2107201A8003F025FF7F21DA
:104D30000B2003F021FF86E71C4A00210720138087
:104D400003F01AFF7F210B2003F016FF77E7124ACA
:104D50001278002A7FF458AF0C4A1278002A3EF4E9
:104D6000A4AC3A8801323A80114A1370FEF79DBC18
:104D7000ABAAAAAA4889FF1FA489FF1F7297FF1F29
:104D80006297FF1FA095FF1F6997FF1F7394FF1F76
:104D90003897FF1F7094FF1F7294FF1F7194FF1FBD
:104DA0007495FF1F7494FF1F8497FF1F7695FF1F54
:104DB000EE95FF1F38B508F0CBFC00254FF07E5470
:104DC0000C4806F00DFB2B46224601210A48FBF752
:104DD00043FB2B46224601210848FBF73DFB0848D0
:104DE000084A09498023002403710460BDE8384063
:104DF0000BF02ABC7897FF1F8095FF1FEC96FF1FD2
:104E0000D495FF1F4489FF1FA905000010B5044673
:104E1000A4206368198804F023F9E368A620BDE89C
:104E20001040198804F01CB903462A205B681988D1
:104E300004F016B910B5044622206368198804F0FE
:104E40000FF9E3682420BDE81040198804F008B980
:104E500010B504460A206368198804F001F9E36874
:104E60000C20BDE81040198804F0FAB810B50446CB
:104E700006206368198804F0F3F8E3680820BDE8A9
:104E80001040198804F0ECB810B50446022063689D
:104E9000198804F0E5F8E3680420BDE8104019889B
:104EA00004F0DEB870B50E4D84B012260422012342
:104EB000CDE90026044603900293284614231021CE
:104EC00006F0CCFD062209230293CDE900260394C7
:104ED00014231021284606F0C1FD04B070BD00BFA8
:104EE0000498FF1F70B5A74DB5F90030032B0BD008
:104EF0007BB3022B4DD0052B78D0012B00F0A38083
:104F0000042B00F0CB8070BD10200AF0DFF9C83010
:104F1000B0F57A6FA8BF4FF47A60B0F5FA7FB8BFEA
:104F20004FF4FA7000F51673B3F57A6F964A974C02
:104F300081B2A8BF4FF47A6322201180238004F04D
:104F40008FF82188242004F08BF8B5F90030002B6D
:104F5000CFD10E2008F06CFB40F6FF73C8309842AA
:104F6000A8BF184620EAE07081B200F2DC509842F7
:104F7000874CA8BF1846874B20800220198004F078
:104F80006FF82188042004F06BF8B5F90030022B8B
:104F9000B1D117200AF09AF9044616200AF096F9C2
:104FA0008442B8BF044604F1C800B0F57A6FA8BFC8
:104FB0004FF47A60B0F5FA7FB8BF4FF4FA7000F59D
:104FC0004873B3F57A6F744A744CA8BF4FF47A6390
:104FD00081B20A201180238004F042F821880C203D
:104FE00004F03EF8B5F90030052B86D10F200AF009
:104FF0006DF9C0F53F610431B1F5FA6FA8BF4FF408
:10500000FA61C0F54363B1F5AF6FB8BF4FF4AF615C
:10501000B3F5FA6FA8BF4FF4FA63B3F5AF6F604A08
:10502000604CB8BF4FF4AF6389B2A42011802380D5
:1050300004F016F82188A62004F012F8B5F9003023
:10504000012B7FF45DAF0B2009F058F8002840F0E9
:105050008680152008F0ECFA41F25C2300F54870D8
:105060009842A8BF1846B0F52F7FB8BF4FF42F70F5
:1050700081B200F5966098424B4CA8BF18464B4B46
:1050800020800620198003F0EBFF2188082003F020
:10509000E7FFB5F90030042B7FF435AF444E002410
:1050A0004FF4AF75E1B2304606F09EF90134854207
:1050B000A8BF05460C2CF5D101200AF007F93D499F
:1050C0003D4AA0F1320301FB03F36FF46770034420
:1050D00082FB03121A44DC17C4EBA224002BACBFE2
:1050E00004F25F1404F5AF74AC424FF00000A8BFA7
:1050F0002C460AF0EBF82F492F4AA0F1320301FBAE
:1051000003F36FF467710B4482FB03121A44D9173F
:10511000C1EBA221002BACBF01F25F1101F5AF7111
:10512000A142A8BF214614393229B8BF322140F22A
:105130003A70A1F5AF7300FB03F3204A204C963B75
:1051400082FB0302DB17A3EB621389B21D4A2180A5
:105150003233BDE870402A20136003F081BF112074
:105160000AF0B4F841F25C23C8309842A8BF184650
:10517000B0F52F7FB8BF4FF42F7081B200F51670D5
:1051800079E700BFB097FF1F0696FF1F0496FF1F29
:10519000A495FF1FA695FF1F1697FF1F1497FF1FCB
:1051A0009496FF1F8A96FF1F2497FF1F2697FF1FC5
:1051B0007897FF1FD4FEFFFFC70FB38DB5814E1B3D
:1051C000BE95FF1FD089FF1F2DE9F041214D82B010
:1051D000012602B284B2CDE900262846782319219F
:1051E00006F0A4FA04F10C0212B2CDE9002628461A
:1051F00004EB060878231921A71C06F097FA0FFA8A
:1052000088F83FB21923009719464246284601966E
:1052100006F08CFA782342460097194628460196F4
:1052200004F10A070B3406F081FA3FB224B2782366
:1052300019463A462846CDE9004606F077FA192382
:10524000CDE900463A461946284606F06FFA02B004
:10525000BDE8F0810498FF1FF0B5164E164FB6F961
:105260000030834283B00D4603D1B7F900308B4242
:105270001DD00023009304B25B23104826221C217A
:1052800007F076F801230D482622214606F00AFF92
:105290006B1C04D1012034803D8003B0F0BD2DB2E1
:1052A000064801232622294606F0FCFEF2E70020EC
:1052B00003B0F0BDE089FF1FE289FF1F0498FF1FC4
:1052C0002DE9F041AA4D2B7882B01BB1A94B4FF6C6
:1052D000FF721A80A84BB3F900303BB1013B042B9D
:1052E0001DD8DFE803F042699AB72100A34BA44818
:1052F0001B685A2283F30C0302FB03F303F2FF73D0
:10530000A0FB03201B1A00EB5300C00A4FF0FF3133
:105310001C30FFF7A1FF10B19A4807F081FC002371
:105320002B7002B0BDE8F0810F2009F0CFFFC0F56F
:105330003B600830B0F5FA6FA8BF4FF4FA60B0F5E3
:10534000AF6FB8BF4FF4AF605A23A0F5AF6003FB57
:1053500000F08D4B00F59670A3FB003080094FF0F4
:10536000FF311C30FFF778FFD5E7884B1B78002B07
:1053700000F0F980152008F05BF9024641F25C2349
:105380009342A8BF1346B3F52F7FB8BF4FF42F73D6
:105390005A21A3F52F7301FB03F37D497D4C03F5DF
:1053A000FA63A1FB03131B0A4FF0FF3103F11C004A
:1053B0002260FFF751FFAEE7774B784A1B6812680F
:1053C000B3F57A6FA8BF4FF47A63B2F57A6FA8BFCE
:1053D0004FF47A62B3F5FA7FB8BF4FF4FA73B2F5BF
:1053E000FA7FB8BF4FF4FA72A2F5FA71A3F5FA701A
:1053F0005A2303FB00F003FB01F1694B01F2D66174
:1054000000F2D660A3FB0121A3FB0030C90AC00A49
:105410001C311C30FFF720FF7DE7624B604A1B68A0
:10542000B3F57A6FA8BF4FF47A63B3F5FA7FB8BFCC
:105430004FF4FA735A21A3F5FA7001FB00F000F261
:10544000D660A2FB0020C00A4FF0FF311C30FFF7EE
:1054500003FF60E727220024CDE900244948524F8A
:10546000DFF82481474E76231C2106F05FF916E011
:10547000B0F5AF7FA8BF4FF4AF70A0F1320103FBCE
:1054800001F19631A8FB013149091C3109B2012310
:105490001C442722304606F005FE0C2C09D0E1B250
:1054A000384605F0A1FF31284FF05A03E0D81C21FF
:1054B000EDE7012009F00AFF3C4B3D49A0F1320223
:1054C00003FB02F26FF46770024481FB0231114466
:1054D000D317C3EBA123002AB4BF03F5AF7303F2C4
:1054E0005F13B3F5AF7FA8BF4FF4AF73322BB8BFD4
:1054F0003223A3F132045A2303FB04F4224B9634E3
:105500000020A3FB043409F0E1FE284B2849A0F158
:10551000320203FB02F26FF467731A4481FB02311B
:105520001144D317C3EBA123002AB4BF03F5AF7313
:1055300003F25F13B3F5AF7FA8BF4FF4AF73322B05
:10554000B8BF3223A3F132015A220F4B02FB01F103
:105550009631A3FB013164091C3449091C312046F2
:10556000FFF77AFED8E6112009F0B0FE024605E703
:10557000BA97FF1FE089FF1FB097FF1F2C97FF1FEF
:10558000010110000498FF1FB5814E1B6495FF1F99
:10559000D34D62106895FF1FE496FF1FE096FF1F32
:1055A0001BECCB95F095FF1F7897FF1FD4FEFFFFF4
:1055B000C70FB38D2DE9F043834D044683B02846D1
:1055C000E668D4F8008007F01BFB1120FFF7FCFD14
:1055D000012719234FF0280919462422284601974C
:1055E000CDF8009006F0A2F8782319462422284628
:1055F000CDF80090019706F099F83946284606F054
:105600004BFD724B2B61B8F1000F07D040460DF0F7
:1056100057F841460246284607F0A6FE6A4807F0BA
:1056200005FF4FF4A0136A4967482B61032207F076
:105630009BFE654807F0FAFE4FF40C13654962487B
:105640002B61032207F090FE5F4807F0EFFE002E6B
:1056500040F09080604B012738461F70FFF722FC16
:105660006368628919882389D21A61D0C91A02EB4A
:10567000D2735C205B1000FB013303FB02F10029B5
:1056800093FBF2F3554AACBF1B331A3399B2118026
:105690001A2001221BB2CDE9000219464A48142201
:1056A00006F044F8002E4ED0238A628AE168D21AAE
:1056B000098800F08680CB1A02EBD2715C20491079
:1056C00000FB031191FBF2F301FB02F2002AACBFD5
:1056D0001B331A3399B21BB2414A3B481180012651
:1056E0003822CDE900261946322206F01FF8092398
:1056F00000220093402301921946334806F068F8CF
:105700003146314806F0C8FC6368364A2A61198878
:105710002D4807F083FE34492B48324607F024FE1B
:10572000E3682948198803B0BDE8F04307F076BE66
:105730002A4A019749231A210091234813801946C8
:10574000142205F0F3FF402300220921CDE90012C5
:105750001D48194606F03CF81B48012106F09CFC48
:105760006368224A2A611988174803B0BDE8F043EC
:1057700007F054BE2F20FFF727FD1D4912480322D2
:105780004FF448132B6107F0EFFD0F4807F04EFE72
:105790000127114B38461F70FFF784FB636862894D
:1057A00019882389D21A7FF461AF0C4A01974923E3
:1057B0001A210091044813801946142205F0B6FFFF
:1057C00072E74923194687E70498FF1F1900020072
:1057D000F8360100FC3601000098FF1FB697FF1F46
:1057E000B897FF1F44000200043701006800020060
:1057F000003701002DE9F047D0F80C8082B01E463A
:105800001446002A4AD0052A054654D00B9B864AE6
:1058100000EBC307012C78893989D7F804C0A0EBC5
:10582000010382FB03E21A444FEAE373C3EBA213C2
:10583000BCF8002000F0F280042C77D07B4F7B482E
:1058400000224023092100910192194605F0C0FF72
:105850007648012106F020FCB8F1000F00F0D4805A
:10586000734B3B616B687148198807F0D7FD71492C
:105870006E48012207F078FDEB686C48198807F044
:10588000CDFD6D4B022CB3F9001000F09080082C78
:1058900000F0C280012002B0BDE8F087674D684A81
:1058A0002B681268CB1A93420F4600F2988020466C
:1058B00002B0BDE8F0875D4F4FF007094FF0000AD6
:1058C0005A2323223846CDE9009A1A2105F080FF99
:1058D0003846012106F0E0FB5A4B3B614FF00113C3
:1058E0004A467B615849384607F03EFD384607F086
:1058F0009DFD384607F094F94FF4FA6008F068FC13
:10590000FFF7F0FA5A2323221A213846CDE9009AEC
:1059100005F05EFF384607F083F92846FFF74AFE98
:105920004A4B01221A70FFF7CBFC88E712FA83F288
:10593000914203DC9042A8BF104681B20A9AACF8AB
:105940000010B6F90030394802F106090FFA82FA60
:105950000FFA89F9002219460192CDF800905246BB
:1059600005F0E4FE7B687A8919883B89D21A58D001
:10597000C91A02EBD2735B105C2000FB013303FBFE
:1059800002F1002993FBF2F3ACBF1B331A339AB236
:105990001BB2012132802548019152461946CDF8AB
:1059A000009005F0C3FE2A4B00221A7046E74A1CFD
:1059B00012B291421A803FF46DAF0A9AB6F90030E4
:1059C0001A480632012412B2CDE900240A9A194677
:1059D00012B205F0ABFE204602B0BDE8F0871C49CC
:1059E00033880A781148013A18BF012201920A70DF
:1059F0000A9A063212B200920A9A1BB212B21946E1
:105A000005F094FE2F6045E76B68124A3A611988E9
:105A1000064807F003FD34E70022CAE79BB2D21A1A
:105A200086E749231A46B4E7C94216B20498FF1F15
:105A30004400020004370100B297FF1FFC97FF1FCC
:105A40007C5001003500230008370100BA97FF1F82
:105A50000098FF1F680002002DE9F04F594F5A4D82
:105A600091F801A09846B7F9003083B055F823901B
:105A70000646BAF1000F01D091F800A0DFF84CB152
:105A80001AB99BF80030002B38D0514D00234846FE
:105A90002B808BF80030FFF78DFD4E4A4E4BB5F949
:105AA0000040012111704FF6FF721A805CB3012C87
:105AB0005246314647D032230124CDE900344846CE
:105AC000464BFFF797FE00260446B5F90030022B3F
:105AD00046DD00232B80B7F90030002B49DB052B76
