:1000000000800020BD010000FDE00000B9E000001C
:10001000B9E00000B9E00000B9E00000B9E000007C
:10002000B9E00000B9E00000B9E00000FDE0000028
:10003000FDE00000B9E00000350C0100390C0100C2
:10004000FDE00000FDE00000FDE00000FDE000003C
:10005000FDE00000FDE00000FDE00000FDE000002C
:10006000FDE00000FDE00000FDE00000FDE000001C
:10007000FDE00000FDE00000FDE00000FDE000000C
:10008000FDE00000FDE00000FDE00000FDE00000FC
:10009000FDE00000FDE00000FDE00000FDE00000EC
:1000A0008DBA000099BA0000FDE00000FDE00000FC
:1000B000FDE00000FDE00000FDE00000FDE00000CC
:1000C000FDE00000FDE00000FDE00000FDE00000BC
:1000D000FDE00000FDE00000FDE00000FDE00000AC
:1000E000FDE00000FDE00000FDE00000FDE000009C
:1000F000FDE00000FDE00000FDE00000C1F00000B8
:10010000FDE0000009F80000FDE00000FDE0000057
:10011000FDE00000FDE00000FDE00000FDE000006B
:10012000FDE00000FDE00000FDE00000FDE000005B
:10013000FDE00000FDE00000FDE00000FDE000004B
:10014000FDE00000FDE00000FDE00000FDE000003B
:1001500085D90000A1D90000BDD90000D9D900007F
:10016000FDE0000085FB0000FDE00000FDE0000078
:10017000FDE00000FDE00000FDE00000FDE000000B
:10018000FDE00000FDE00000FDE00000FDE00000FB
:10019000FDE00000FDE00000FDE00000FDE00000EB
:1001A000FDE00000FDE00000FDE00000FDE00000DB
:1001B000FDE00000FDE00000FDE00000574B4CF2C8
:1001C000205210B5DA814DF62812DA8100BF00BF47
:1001D0000DF098FF524B4FF010621A63514A9A6328
:1001E000514ADA63514A136913F4807303D153619E
:1001F0004FF4A85313614E4B9A78110703D59A78A0
:1002000042F008029A704B4B4B482A221A704B4B13
:10021000DA1C121AC11E22F00302994288BF002282
:1002200047490DF075FE474B4748DA1C121AC11EAC
:1002300022F00302994288BF0022002112F07EFCC6
:10024000424943484FF4DE720DF062FE414B424A90
:10025000802103F8011B9342FBD14FF0E0233C4A7D
:10026000C3F8082D3D4B8A221A70A3F5805324222F
:100270005A70A0221A709A799207FCD59A79D406FE
:10028000FCD4374B9A7902F00C02082AFAD10322E7
:100290001A7140225A719A799006FCD5304A9379A6
:1002A0005906FCD51E4B2F4959640221996420211F
:1002B0001170917901F00C010C29FAD12A4A5A6087
:1002C0004FF0E023294A5A6100229A6107221A61FD
:1002D000274AC3F8202D62B60EF070F8134B5B6905
:1002E000DA0705D523480EF05DF8234B234ADA617F
:1002F000234B1B785B0609D51F4C204BE2699A42C1
:1003000004D11C480EF04EF80023E3610DF000FF0D
:1003100012F0F6FC0DF0F4FDFEE700BF00200540F2
:1003200000800440823F04000100002B00D0034005
:1003300000D0074000E007404088FF1F7895FF1F6E
:10034000F067010000A1FF1F7895FF1F000000006B
:100350000082FF1F00E400E05FE400E00050064080
:100360000040064000000301C0100500FF760100B8
:10037000000020200B05D66800E00340A5C3945A76
:1003800000F00740FFFFFFFFFFFFFFFFFFFFFFFF42
:10039000FFFFFFFFFFFFFFFFFFFFFFFFFFFFFFFF6D
:1003A000FFFFFFFFFFFFFFFFFFFFFFFFFFFFFFFF5D
:1003B000FFFFFFFFFFFFFFFFFFFFFFFFFFFFFFFF4D
:1003C000FFFFFFFFFFFFFFFFFFFFFFFFFFFFFFFF3D
:1003D000FFFFFFFFFFFFFFFFFFFFFFFFFFFFFFFF2D
:1003E000FFFFFFFFFFFFFFFFFFFFFFFFFFFFFFFF1D
:1003F000FFFFFFFFFFFFFFFFFFFFFFFFFFFFFFFF0D
:10040000FFFFFFFFFFFFFFFFFFFFFFFFDEF9FFFF23
:100410000548064B1B1AD90F01EBA301491002D066
:10042000034B03B1184770477895FF1F7895FF1F5E
:100430000000000008B5054B1BB105490548AFF3A6
:100440000080BDE80840FFF7E3BF00BF00000000E8
:100450007895FF1FE867010038B50446084620700C
:100460000A4910461D4611F017FC01464FF07E5018
:1004700011F0C6FC064911F00FFCE56060602561D3
:1004800065610EF0E7F9E061204638BDDB0FC94039
:100490000024744938B50446084620700A491046BD
:1004A0001D4611F0F9FB01464FF07E5011F0A8FCFB
:1004B000064911F0F1FBE5606060256165610EF0B1
:1004C000C9F9E06138BD00BFDB0FC94000247449A1
:1004D000037810B50446032B21D8DFE803F0191E7A
:1004E0001102C168406911F0CDFA0E4903466068F7
:1004F0001C4611F085FC0146204611F081FC10BD20
:100500000849406811F07CFCE16811F0C5FB10BDA2
:10051000C168406911F0B6FA10BDC06810BD002076
:1005200010BD00BF00247449F8B504460E460EF015
:1005300091F9E3690546C01A11F05AFBE768A0611A
:100540000146E56160686661276111F059FC01466A
:10055000A0600E4811F054FC11F018F90546014650
:100560004FF07E5011F08EFA314611F095FB29467E
:100570000646384611F090FB0146304611F084FAE9
:10058000E0602046BDE8F840FFF7A2BF000080BF52
:10059000036818470B680360704700BF0B6803606F
:1005A000704700BF704700BF10B504460DF09EF9BC
:1005B000204610BDF8B5044606981D460F46561A4B
:1005C00011F030FD401BF6B1A4EB070C002800FB36
:1005D0000CFC06EBD6730ADB0CEB630C0CFB06F38E
:1005E000002B9CFBF6FC0CEB050011DBF8BDACEB23
:1005F000630C0CFB06F3002B9CFBF6FC0CEB0500DC
:10060000F4DB0130F8BD00EBD07005EB6000F8BD05
:100610000138F8BDBDF800C0521AACEB030C1CD079
:10062000401ABCF1000F0CFB00F002EBD27109DBA9
:1006300000EB610000FB02F1002990FBF2F018448E
:1006400010DB7047A0EB610000FB02F1002990FB7A
:10065000F2F01844F5DB013070470CEBDC7C03EB67
:100660006C00704701387047DDF800C0521AACEBDF
:10067000030C1CD0401ABCF1000F0CFB00F002EB85
:10068000D27109DB00EB610000FB02F1002990FB55
:10069000F2F0184410DB7047A0EB610000FB02F1A0
:1006A000002990FBF2F01844F5DB013070470CEBA9
:1006B000DC7C03EB6C0070470138704738B50B8861
:1006C000182B0D46044607D1294B1B7805EB430533
:1006D0006B88182B14D138BD0344A3F118007F2870
:1006E00023DD244A973BA2FB0312D20802EB42020D
:1006F000A3EB820303F17300C0B208F023FEE3E72B
:100700001C44A4F118007F281EDD1A4B973CA3FB64
:100710000423DB0803EB4303A4EB830404F173001D
:10072000BDE83840C0B208F00DBE0028E4DA114A36
:10073000C3F11803A2FB0312D20802EB4202A3EB9F
:100740008203C3F10C00D7E70028E9DA094BC4F1B2
:100750001804A3FB0423DB0803EB4303A4EB83048B
:10076000C4F10C00C0B2BDE8384008F0EBBD00BFDA
:10077000D789FF1FABAAAAAA38B50C46054634F89C
:10078000023B182B1DD134480378013303F00302D8
:100790000270134634F81220182A28D14FF0040CA6
:1007A000591C032BCAB215BF1346224604EB420262
:1007B000002303701288182A19D1BCF1010CEFD163
:1007C00038BD0344A3F118007F2827DD234A973B57
:1007D000A2FB0312D20802EB4202A3EB820303F155
:1007E00073001F4BC0B2197808F06EFDCBE71544BB
:1007F000A5F118007F2820DD184B973DA3FB0523AA
:10080000DB0803EB4303A5EB830505F17300144BF1
:10081000C0B21978BDE8384008F056BD0028E0DACB
:100820000E4AC3F11803A2FB0312D20802EB4202E4
:10083000A3EB8203C3F10C00D3E70028E7DA074BF0
:10084000C5F11805A3FB0523DB0803EB4303A5EB68
:100850008305C5F10C00DAE7D789FF1FABAAAAAA66
:10086000CE98FF1F38B50E202B4D0DF043FA298886
:100870002A4B81421B88044633DD5B1A0A4636D078
:10088000521AC2EB023203EBD37102EB610292FB0C
:10089000F3F102FB03F3002B3ADB14200DF0E0FD33
:1008A0001F4B1B889BBB2A88A24223DC40F6FF73A8
:1008B0009C42A8BF1C46C2F57F630F3303B3A11A45
:1008C000C1EB013103EBD37201EB620101FB03F2D7
:1008D000002A91FBF3F11DDBBDE8384028200DF024
:1008E000BFBD83421A46A8BF02465B1AC8D140F278
:1008F000FF71D2E7C2F57F630F331446002BDED1C0
:10090000BDE8384040F2FF7128200DF0A9BD38BD88
:100910000139C2E70139DFE7D696FF1FD496FF1FE2
:100920001897FF1F38B50F200FF032F8174B1849F2
:100930001B880860C0F53B6208329A4217DB1549F4
:100940000988C81A20D08A42D4BFC3EB0203C3EB84
:100950000103C3EBC31300EBD07203EB620404FB8F
:1009600000F3002B94FBF0F402DA013C00E00024D9
:10097000094D2B68A34200D138BD084BE1B218786D
:1009800008F064FC2C6038BD3F24F1E7C897FF1FD6
:10099000C097FF1FBE97FF1FFC97FF1FBA97FF1F4F
:1009A00038B51B4B1B7803B315200DF0A3F9194B79
:1009B000194A1B88106083421BDC184A1288D11A1E
:1009C00024D08242D4BFC3EB0203C3EB0003C3EBCA
:1009D000C31301EBD17203EB620404FB01F3002BA0
:1009E00094FBF1F406DA013C04E011200EF0D0FF94
:1009F000DDE700240A4D2B68A34200D138BD094B26
:100A0000E1B2187808F022FC2C6038BD3F24F1E7F1
:100A10009496FF1F5A98FF1F9896FF1F5898FF1F24
:100A2000E497FF1F9096FF1FF8B5724B724C1B881E
:100A3000C31A054684FB0304D817C0EB640000EB1F
:100A40004000A3EB800303EB4303980001EB830416
:100A500008582844AAB17F285CDD684B7F38A3FB87
:100A60000023DB0803EB4303A0EB83007330644FE8
:100A7000644E3978C0B208F027FC3388022B57D86F
:100A8000F8BD7F2838DD5D4B7F38A3FB0023DB08F2
:100A900003EB4303A0EB830073305A4EC0B208F05F
:100AA00051FC3388022BEBD9606828447F2840F33F
:100AB0009280524B7F38A3FB0023DB0803EB4303F8
:100AC000A0EB83007330C0B208F03CFC3388032BEA
:100AD000D6D9A06828447F286FDD484B7F38A3FB18
:100AE0000023DB0803EB4303A0EB83007330BDE876
:100AF000F840C0B208F026BC0028CEDA3F4B404296
:100B0000A3FB0023DB0803EB4303A0EB8300C0F14E
:100B10000C00C2E70028AADA384B4042A3FB0023AE
:100B2000DB0803EB4303A0EB8300C0F10C009EE75E
:100B3000606828447F2832DD304B7F38A3FB0023D8
:100B4000DB0803EB4303A0EB830073303978C0B2BA
:100B500008F0BAFB3388032B92D9A06828447F2879
:100B60000FDD264B7F38A3FB0023DB0803EB430399
:100B7000A0EB830073303978C0B2BDE8F84008F0CC
:100B8000A3BB0028F7DA1D4B4042A3FB0023DB0880
:100B900003EB4303A0EB8300C0F10C00EBE700285C
:100BA000D4DA164B4042A3FB0023DB0803EB4303DC
:100BB000A0EB8300C0F10C00C8E7002897DA0F4BC8
:100BC0004042A3FB0023DB0803EB4303A0EB8300BD
:100BD000C0F10C008BE70028BFF675AF074B404211
:100BE000A3FB0023DB0803EB4303A0EB8300C0F16E
:100BF0000C0068E79097FF1FABAAAA2AABAAAAAA83
:100C0000CE98FF1F9297FF1F08B51A4B1B7833B37E
:100C100015200DF06FF8184B184A1B781060DBB1E7
:100C2000174B1B8883421EDC164A1288D11A1ED02D
:100C30008242D4BFC3EB0203C3EB0003A3EB8303E5
:100C400001EBD172A3EB620303FB01F2002A93FBD9
:100C5000F1F3B4BF043305330B4A136008BD112010
:100C60000EF096FED7E7084A0023136008BD032361
:100C7000F2E700BF9496FF1F7097FF1F9896FF1F23
:100C80005A98FF1F5898FF1F7497FF1F2DE9F843CC
:100C9000974B1B88013B0446092B3CD8DFE803F047
:100CA0000A10161C22282E3D4205BDE8F843914942
:100CB000FFF704BDBDE8F8438F490022FFF7B4BE3B
:100CC000BDE8F8438D490022FFF7AEBEBDE8F8430A
:100CD0008B490022FFF7A8BEBDE8F84389490022EE
:100CE000FFF7A2BEBDE8F84387490022FFF79CBE8C
:100CF000BDE8F84385490022FFF796BE844D854E36
:100D00002B88A3B184493288098803318A420EDCDA
:100D10001344022B48DCBDE8F883BDE8F8437F4963
:100D2000FFF7CCBCBDE8F8437D49FFF7C7BC7D4A5F
:100D30007D4912887D4FA21A81FB021C7C49D01785
:100D40000988C0EB6C0000EB4000A2EB800201EBD5
:100D5000C101090102EB420201EB8202A3EB830312
:100D6000B858204400EB83007F2812DC00280ADA00
:100D7000704B4042A3FB0023DB0803EB4303A0EBD3
:100D80008300C0F10C00C0B208F0DCFA32882B8876
:100D9000BEE7684B7F38A3FB0023DB0803EB43036C
:100DA000A0EB83007330EEE7DFF878915E49B9F885
:100DB0000030DFF87C815D4FE31A81FB0321DA17F5
:100DC000C2EB610202EB4202A3EB820303EB43029C
:100DD000B8F8003003EBC3031B0103EB82033B4471
:100DE000586820447F2858DD524B7F38A3FB0023EE
:100DF000DB0803EB4303A0EB83007330C0B208F0C1
:100E0000A1FA33882A881344032B84DDB9F8003013
:100E10004548B8F80020E31A80FB0310D917C1EB4E
:100E2000600101EB410102EBC202A3EB810312015D
:100E300003EB430302EB83031F44B86820447F287D
:100E400039DD3C4B7F38A3FB0023DB0803EB430376
:100E5000A0EB83007330C0B208F074FA33882A889C
:100E60001344042B7FF757AF2B4B1B88012B7FF4C8
:100E700052AFA4F10C037F2B2BDD2E4AA4F18B0380
:100E8000A2FB0312D20802EB4202A3EB82037333EC
:100E9000D8B2BDE8F84308F055BA0028AEDA254BC1
:100EA0004042A3FB0023DB0803EB4303A0EB8300DA
:100EB000C0F10C00A2E70028CDDA1E4B4042A3FB94
:100EC0000023DB0803EB4303A0EB8300C0F10C001D
:100ED000C1E7002BDCDA174AC4F10C03A2FB0312B2
:100EE000D20802EB4202A3EB8203C3F10C03CFE76B
:100EF0005098FF1F8C98FF1F203301009032010093
:100F0000E8310100803D0100F03C0100103E01008D
:100F10005A97FF1F9297FF1F5C97FF1F7498FF1F40
:100F20008098FF1F9097FF1FABAAAA2A883A01005A
:100F30005E97FF1FABAAAAAA2DE9F843964B1B8820
:100F4000013B0446092B3CD8DFE803F00A10161CCD
:100F500022282E3D4205BDE8F8439049FFF70CBC1E
:100F6000BDE8F8438E490122FFF75EBDBDE8F843B6
:100F70008C490122FFF758BDBDE8F8438A49012298
:100F8000FFF752BDBDE8F84388490122FFF74CBD89
:100F9000BDE8F84386490122FFF746BDBDE8F843A6
:100FA00084490122FFF740BD834A844B1288198887
:100FB000551891B1824B1B8803339A420DDC022DE8
:100FC00048DCBDE8F883BDE8F8437E49FFF7D4BBB1
:100FD000BDE8F8437C49FFF7CFBB7C4B7C4F1B88B7
:100FE0007C4EE31A87FB03277B4AD8171288C0EB95
:100FF000670000EB4000A3EB800302EBC20212018A
:1010000003EB430302EB8303A1EB8101F05820447F
:1010100000EB81007F2812DC00280ADA6F4B404287
:10102000A3FB0023DB0803EB4303A0EB8300C0F129
:101030000C006B4BC0B2197808F046F9BFE7674B5C
:101040007F38A3FB0023DB0803EB4303A0EB830003
:101050007330EEE7DFF874915D49B9F80030DFF8DE
:1010600078815C4EE31A81FB0321DA17C2EB61023F
:1010700002EB4202A3EB820303EB4302B8F8003019
:1010800003EBC3031B0103EB820333445868204482
:101090007F2856DD514B7F38A3FB0023DB0803EB91
:1010A0004303A0EB830073304D4FC0B2397808F092
:1010B0000BF9032D85D0B9F800304548B8F8002069
:1010C000E31A80FB0310D917C1EB600101EB41016A
:1010D00002EBC202A3EB8103120103EB430302EB19
:1010E00083031E44B06820447F2838DD3B4B7F38A3
:1010F000A3FB0023DB0803EB4303A0EB8300733067
:101100003978C0B208F0E0F8042D3FF45AAF2C4B08
:101110001B88012B7FF455AFA4F10C037F2B2CDD32
:101120002E4AA4F18B03A2FB0312D20802EB420267
:10113000A3EB820373333978D8B2BDE8F84308F0E3
:10114000C3B80028B0DA254B4042A3FB0023DB08DC
:1011500003EB4303A0EB8300C0F10C00A4E70028DD
:10116000CEDA1E4B4042A3FB0023DB0803EB430314
:10117000A0EB8300C0F10C00C2E7002BDBDA174ABA
:10118000C4F10C03A2FB0312D20802EB4202A3EB50
:101190008203C3F10C03CEE75098FF1F8C98FF1F0A
:1011A0002033010090320100E8310100803D010050
:1011B000F03C0100103E01009297FF1F5A97FF1F5D
:1011C0005C97FF1F7498FF1F8098FF1F9097FF1F69
:1011D000ABAAAA2A883A01005E97FF1FABAAAAAA67
:1011E000CE98FF1F10B50C8884422DD203F1004326
:1011F000013B31F81340844223D9B1F802C0844541
:1012000038BF012324D20133DBB29E4631F813C02C
:1012100060454FEA4304F6D8604517D00EF1004E02
:101220000EF1FF3E135B31F81E1032F81E20401AFB
:101230009B1A03FB00F0ACEB010C90FBFCF010449C
:1012400010BD32F8130010BD108810BD105B10BD2A
:1012500002244FF0010EDFE7204B1B880C2B30D807
:101260001F4982B230B551F8235042B343F6FE73A2
:101270009A4227D8B2F5806F29D31A4C0123013343
:10128000DBB2194634F813E072454FEA430CF6D846
:10129000724519D001F100410139124B35F8114066
:1012A00033F8113035F80C2080B2C01A121B00FB45
:1012B00002F2AEEB030392FBF3F3181930BD28885A
:1012C00030BD7047288C30BD35F80C0030BD40F281
:1012D000FF3E4FF0020C0121DAE700BFF496FF1F3A
:1012E000C43E0100A03E01002DE9F0435C4B83B0F9
:1012F000186810F07DFC5B4B0446188810F074FCF5
:101300000146204610F0C8FC574910F079FD10F056
:1013100089FE564B1A88002A73D04042544B5549D7
:101320001B680C88544A9C42168825465CDCB342F4
:10133000A8BF33461844A0425ADA504B1C60B5424D
:10134000A8BF3546331B6BD0281B03EBD372C0EB11
:10135000803000EB620000FB03F2002A90FBF3F008
:101360007BDBFFF779FF464B1F88464BC0F3C6195E
:1013700009FB07F71B887F2F8046A8BF7F273BB15B
:1013800000933246002321462846FFF743F90346DF
:101390003D4A3E4C136023684B4509D03C4B1B88AB
:1013A000002B4DD13B4B1B88002B45D1C4F800903E
:1013B000394C2368434506D0354B1B885A1F032AF6
:1013C00031D9C4F80080354C23689F4209D0344B92
:1013D000188828B12E4B334A1B88D35C834237D1FF
:1013E000276003B0BDE8F08323461844A042A4DB85
:1013F000B042A8BF3046214BA0421860A2DB054690
:101400009DE7294B1B68032B88D0194B19481B6893
:1014100004881949A3420E88254617DA2046E7E7D3
:1014200041F6FF709DE71F4AD05C203008F07F0135
:10143000C0B207F00BFFC4E7484607F0BBFFB5E7B3
:10144000184A4946D05C07F001FFABE710466EE74B
:10145000F9B2C0B207F0FAFEC2E7013881E700BF77
:10146000D898FF1F8C8AFF1F00002042D098FF1FD2
:101470006098FF1FD696FF1FD496FF1FD096FF1FC0
:10148000AA96FF1F9E96FF1FA096FF1FE897FF1FBB
:10149000A696FF1FA496FF1FF097FF1FEC97FF1F54
:1014A000A896FF1FCC89FF1FD897FF1F2DE9F04F8B
:1014B00001208DB00EF06CFAA24A034600201360A2
:1014C0000EF066FAA04BA14A1B8810600C2B48D086
:1014D0009F4A00211F2B11704AD19E4BDFF878B232
:1014E0001B789E4E9E4A003B18BF01233370BBF809
:1014F000003052F823509B4B9B491A889B4B9C48C9
:101500001B880988013A013B30F912A0994A012948
:1015100032F9134000F03282974B0393974B0593B7
:10152000DFF85C82974B04930027974B1B88012BB5
:1015300000F0CB81954B964A1C680893D8F800A020
:10154000944B069207934FF00009934B1B88013B85
:10155000032B00F26083DFE813F067014101CF0045
:1015600016007C4B1B78002B40F0F181784A1370F9
:10157000DFF8E4B1794EBBF8002000233370784BDC
:1015800053F82250B7E7204610F032FB834910F0A1
:1015900083FB0446484610F02BFB814910F07CFB8E
:1015A0000146204610F070FA10F03CFD089BDDF873
:1015B000148018600446D8F8000010F019FB774931
:1015C00010F06AFB034638461F4610F011FB7449C1
:1015D00010F062FB0146384610F056FA10F022FD7A
:1015E000C8F80000574BDFF8BCC119686E4BBCF857
:1015F00000801A886D4B6E4F1B883F88DDF818E01D
:10160000A4EB020C2244079CCEF800C02260039C8D
:10161000C21A2260049A03448F42136000F353817C
:1016200088454046A8BF0846484B1B689F4200F3C8
:10163000488198454446A8BF1C468F42C0F2258188
:101640009F42C0F222815B4F386810F0D1FA5349B3
:1016500010F022FB584910F017FA10F0E3FCA0F547
:10166000FF531C3B082B386001D84FF40050534BFC
:101670001B68824413B1524B1B689A4443F6FF78AF
:10168000C2455046A8BF404620EAE070386010F0DE
:10169000AFFA0346307805FB00F01D4610F0A8FABB
:1016A0004FF07A5110F0F8FA0146284610F0EAF9A6
:1016B00010F0B8FC434B444D1B784045A8BF404652
:1016C00020EAE0702860002B00F0D480BAF5005FBB
:1016D00000F0D08004F0D6FD3C4B286801221A703F
:1016E0003B4C2368834204D080B207F095FE2B6800
:1016F00023600DB0BDE8F08F204610F079FA35492F
:1017000010F0CAFA0446484610F072FA324910F056
:10171000C3FA0146204610F0B7F910F083FC089B8D
:10172000DDF8148018600446D8F8000010F060FA64
:10173000284910F0B1FA034638461F4610F058FA0F
:10174000254945E71898FF1F4698FF1F1498FF1F6B
:101750008497FF1F4498FF1FA295FF1F6798FF1FE4
:10176000E489FF1F908AFF1F9296FF1F928AFF1F36
:101770007832010030350100E098FF1FF098FF1F1C
:10178000D898FF1FE498FF1FBC97FF1FEC98FF1F1E
:10179000DC98FF1FE898FF1F8E8AFF1F9A99193F58
:1017A000CDCCCC3E4898FF1F948AFF1F968AFF1F1E
:1017B0004A98FF1F1C8AFF1FCDCC4C454C89FF1F48
:1017C0004098FF1FB499FF1F188AFF1FD698FF1F6C
:1017D000E089FF1FCDCC4C3FCDCC4C3E204610F0D5
:1017E00007FAB74910F058FA0446484610F000FAD4
:1017F000B44910F051FA0146204610F045F910F0B6
:1018000011FC089BDDF8148018600446D8F800002D
:1018100010F0EEF9AA4910F03FFA034638461F4689
:1018200010F0E6F9A749D3E6204610F0E1F9A64901
:1018300010F032FA0446484610F0DAF9A34910F0E5
:101840002BFA0146204610F01FF910F0EBFB089B25
:10185000DDF8148018600446D8F8000010F0C8F9CC
:10186000994910F019FA034638461F4610F0C0F99E
:101870009649ADE6964C2378002B3FF431AF04F047
:10188000FDFC0023286823702AE7BBF80030002BFA
:101890003FF4D9AE0023424639460095FEF7E4FEF8
:1018A000009584464246204639466446FEF7DCFEF3
:1018B000231A002BB8BF5B42092B00F39E80854F93
:1018C000D3E63C46B9E63846AEE600230993824C9F
:1018D00006940F200EF05CF822688242814640F3A5
:1018E000DE807E4B0A921B88012B00F070817C4BBE
:1018F0007C4A1988146807912846089210F078F9F4
:10190000794B079953F8211010F0C6F901460020D1
:10191000A4EB0A0A10F0B6F80A9A0090D1451146D5
:1019200048465246B8BF50460023FEF743FED8F85B
:101930000030184400EBD0706C4B07934FEA600AFC
:10194000099BC8F800A0002B40F0B380FDE5DFF84C
:10195000A0B1684ABBF80010674B52F82100674EEF
:1019600001221A700023337010F042F94FF07C51BD
:1019700010F092F910F056FB0546BCE5604B1B7861
:10198000002B52D111200EF003F85E4B0393D3F8D5
:1019900000800746B84552DD504B5B4A1B880592D4
:1019A000012B4F4BB3F8009013682846A3EB0404B7
:1019B00000F0C88010F01CF94B4B53F8291010F0C0
:1019C0006BF90146002010F05DF8A74200904146F7
:1019D0003846DFF838814FF00003B8BF2046224672
:1019E000FEF7E8FDD8F80030184400EBD070484B03
:1019F00004934010C8F8000097E504F50054013442
:101A0000201A10F0F5F84349324F10F045F904461A
:101A1000386810F0EDF8404910F03EF901462046D4
:101A200010F032F810F0FEFA21E615200CF062F901
:101A3000344B0393D3F800800746B845ACDC344BF5
:101A40000493D3F80080B84568DA244B2E4A1B88EB
:101A50000592012B224BB3F80090136828461C44D2
:101A600000F0C78010F0C4F81F4B53F8291010F095
:101A700013F9A742009041463846DFF890804FF0B6
:101A80000003A8BF20462246FEF794FDD8F8003098
:101A9000184400EBD0704010C8F8000045E5134B27
:101AA00007931A68824255DB0E4BD8F800A01C68D9
:101AB00008930AEBDA7A4FEA6A0AC8F800A044E50C
:101AC0006666663FCDCCCC3D3333733FCDCC4C3DC9
:101AD000D698FF1F1C8AFF1FDC98FF1FD498FF1F9A
:101AE000F498FF1FEC98FF1FC83C0100E898FF1F07
:101AF000A295FF1FE489FF1F8497FF1F6798FF1FB0
:101B00009496FF1FE098FF1FF098FF1FD898FF1FC3
:101B1000E498FF1FCDCCCC3E9A99193F3F4B1B88D0
:101B2000012B72D03E4B08931C683E4BDFF8F880C7
:101B300005933E4B06933E4BD8F800A007934FF019
:101B40000009B6E710F054F83A4B53F8291010F09A
:101B5000A3F83AE7384B0B921B88012B22D0374B66
:101B60002F4A198814680A912846089210F040F804
:101B7000304B0A9953F82110A24410F08DF80B9ABB
:101B80000090D145114648465246A8BF5046002312
:101B9000FEF710FDD8F80030184400EBD0704FEA83
:101BA000600ACDE6254B1E4A198814680A9128461A
:101BB000089210F01DF81F4B0A9953F8211010F0ED
:101BC0006BF801460020A2440FF05CFFD7E71B4BE7
:101BD000134A1988146807912846089210F008F8EB
:101BE000144B079953F82110A4EB0A0A10F054F88B
:101BF00092E60FF0FDFF0F4B53F8291010F04CF850
:101C0000014600200FF03EFF33E70993054BDFF854
:101C1000188005935BE6059B1868E3E4BC97FF1FFB
:101C2000EC98FF1FF098FF1FD898FF1FDC98FF1F4C
:101C3000E898FF1FC83C0100D498FF1FF498FF1FCD
:101C400008B5244B1B885BB3234B1B785BB3234B3A
:101C50001B7843B3224B1B782BB3224B1B7813B357
:101C6000214B1A782AB3214A214822491288008838
:101C700009680244B1EB520F15DD00221A7007F01B
:101C800077FC642004F012FB642004F00FFB642056
:101C900004F00CFBBDE808404FF416700CF0FABDE0
:101CA000114A117801B908BD1370BDE8084007F06A
:101CB0005FBC0E4A0E481049128800880968024429
:101CC000B1EB520FEFDD01221A70BDE8084064202D
:101CD00004F0ECBA6297FF1FA595FF1FA695FF1FA2
:101CE000A795FF1FA895FF1F6097FF1F4898FF1F2C
:101CF0004A98FF1F1498FF1F1898FF1F38B5114C02
:101D0000232025780BF0F6FF0F49002241F825002B
:101D10000B1F01F1C40053F8041F83420A44FAD197
:101D200023780A490A480133DBB281FB0251322B86
:101D30004FEAE272C2EB211208BF00230260237057
:101D400038BD00BFC095FF1FC495FF1F1F85EB5115
:101D5000BC95FF1F2DE9F04F9B4E9C4D3068DFF87E
:101D6000708285B00FF044FF9A490FF095FF04464A
:101D700010200DF00DFE0FF03BFF97490FF08CFF88
:101D800021460FF081FE10F04DF92988934C306008
:101D900003468B422060B8F800C0084680F2C78036
:101DA000BCEB01060A4600F0CA80521A06EBD67751
:101DB000C2EBC21202EB670202FB06F7002F92FB96
:101DC000F6F2C0F25D81864F864E32603A88192A5B
:101DD00000F0E4801A2A28D01E2A00F09C810127F6
:101DE000814EB946814A12888AB1DFF804E2BEF812
:101DF00000E0BEF1030F00F238818B4280F2428195
:101E0000009200236246FEF705FC7A4B18607A4A7E
:101E10003388108850EA030113D1784B1A78002ACE
:101E200040F01A8205B0BDE8F08F754A6E4E127808
:101E3000002A0BBF012700274FF000094FF00109CE
:101E4000D0E72988D4F800C061457ADCDFF8ACE13E
:101E50009EF800A0BAF1000F34D14FF0010A042817
:101E60008EF800A02ED1002F40F0C4813388002BC3
:101E7000D8D0B9F1000FD5D022682888B8F8001062
:101E8000904200F3AA818A42A8BF0A46091A00F0CC
:101E9000C481121A01EBD174C2EB8212641004EBFC
:101EA000420404FB01F2002A94FBF1F400DB01344C
:101EB000544D2A68A24203D0E1B2D8B207F0C6F965
:101EC0002C60AFE7012800F03F81022800F0F3808A
:101ED0000328CBD14C4B1B88092BC7D0002FC5D072
:101EE00023682988B8F80020994240F3A6810B4660
:101EF000521A00F0A6815B1A02EBD277C3EB831370
:101F00007F1007EB430707FB02F3002B97FBF2F769
:101F100000DB0137DFF8F4B0DBF80030BB4203D060
:101F2000F9B24A2007F092F9CBF800709EE76345BA
:101F30001A46A8BF6246BCEB01067FF436AF3F22CB
:101F400041E72E4A117800293FF46CAF00240128A4
:101F5000147000F0EB80022800F09E80032840F00F
:101F60003081294A1288092A09D047B1274D2A68A9
:101F70002AB121464A2007F069F933882C60002BEA
:101F80003FF450AFB9F1000F3FF44CAFD8B200218D
:101F900007F05CF91B4B00221A6043E7DFF8609002
:101FA000114E99F80020AAB3B6F800E0BEF1000F78
:101FB00030D0DFF85CA09AF800B0934540F00F8174
:101FC00001274FF000090DE72097FF1F3697FF1FED
:101FD0003497FF1F9A99193FCDCCCC3E2897FF1F0D
:101FE0004698FF1F2497FF1F2E97FF1F8897FF1FFC
:101FF0008697FF1F8C97FF1F2C97FF1F3297FF1F9D
:102000004498FF1FF897FF1FA696FF1FF497FF1F26
:10201000AD97FF1FDFF844A29AF800E09645CFD0B5
:102020000021307807F012F999F8003039888AF8E1
:1020300000308B4B1A88002A00F0BD801E2940F02A
:102040000281012799F80030002B60D0DFF814E2FC
:102050002988BEF800E02368B8F800C0BEF1030F7D
:1020600008464FF000097FF6C8AE8B420FDA0092A7
:1020700000230A466146FEF7CDFA7B4B1860C6E6A0
:10208000013AA0E66345A8BF63461846B8E6634533
:10209000A8BF63461846EAE7002F3FF470AF734DC0
:1020A0002A68002A3FF46BAF2146042007F0CEF8DF
:1020B00033882C6063E7002F3FF4D9AEDFF8ACB172
:1020C000B8F80000DBF800A084456346A8BF0346CB
:1020D000401A00F0AD805B1A00EBD0714910C3EBE1
:1020E000831301EB430303FB00F1002993FBF0F39F
:1020F00000DB0133534506D0D9B20420039307F027
:10210000A5F85B4A039B1088CBF80030E0E6564AFE
:10211000994613607BE6DFF85C91514B99F80070AB
:102120001A88554EB7FA87F77F098BE7002F3FF4DF
:1021300026AF4E4D2A68002A3FF421AF214607F012
:1021400085F833882C601AE7002F3FF48FAEB8F87B
:1021500000309C456046A8BF18465B1A6AD0401AFA
:1021600003EBD37AC0EB80104FEA6A0A0AEB400A0D
:102170000AFB03F100299AFBF3FA01DB0AF1010AD9
:10218000DFF8E8B0DBF80030534505D05FFA8AF19C
:10219000012007F05BF8364A1088CBF800A002282F
:1021A0007FF496AE2B88D4F800C0B8F800006345E1
:1021B00019468DDC88E71E293FF443AF914601277D
:1021C00025E604287FF4DBAE002F3FF4D8AE21468D
:1021D000402007F03BF83388D1E6024656E67F21DF
:1021E0005FFA8EF007F032F899F8003039888AF8F3
:1021F00000301EE740207F2107F028F81C4A108895
:1022000050450CD002287FF463AEDFF860B02B8815
:10221000DBF800A0D4F800C0C7E7402448E62888CF
:10222000D4F800C0B8F800306045014695DC90E76E
:1022300040235FE74FF0400AA2E79342A8BF13464E
:1022400056E6402766E629882368B8F800C00846A5
:1022500001274FF00009C8E51970E3E5AD97FF1FAE
:102260008897FF1F8697FF1F8C97FF1FF497FF1F0C
:102270002C97FF1F4498FF1F2E97FF1F08B5114B87
:102280001B88022B09D0052B07D0032B0DD0042B64
:1022900013D00D4B01221A7008BD7F21412006F09A
:1022A000D5FF094B01221A7008BD4021092006F014
:1022B000CDFF054B01221A7008BD7F21092006F0D1
:1022C000C5FFE6E75C98FF1F5298FF1F70B5134EDD
:1022D000134D3388134C052B16D029882268914260
:1022E00009D1022B10D0033B012B11D8002109206A
:1022F00006F0ACFF0CE0C9B2052006F0A7FF33885A
:10230000022B01D0052BEED10021412006F09EFFCB
:10231000054A2B8823600021117070BD5C98FF1F57
:102320005698FF1F0098FF1F5298FF1F774B1B887E
:102330001D2B70B500F0A480754B1B78002B3ED18F
:10234000744B1B88052B00F0CC800025724B1B883A
:10235000022B3AD0042B38D0704B1B88022B61D053
:102360006F4A704B11881A88521A85F30703002AA6
:1023700002FB03F36C4AC0F29D803F3382FB0302F1
:102380001A44DC17C4EBA214002B0C44C0F2B0803A
:10239000664E674B3460002D1B786BDD002B00F020
:1023A0009C80644B644D1B88052B06D02B689C4297
:1023B00003D0E1B2052006F049FF2C6070BD5D4BF3
:1023C0001D88002DC2D07F2567E05C4B1B78002B59
:1023D0006CD015200BF08EFC564B594A1B881060B0
:1023E000002BB9D0574B1B888342B5DC564A128864
:1023F000D11A00F088808242D4BFC3EB0203C3EB42
:102400000003C3EBC31301EBD17203EB620303FBC5
:1024100001F2002A93FBF1F36CDB1D443F4B1B8858
:10242000022B9DD10F200DF0B3FA424B474A1B8877
:102430001060002B94D0464BC0F53B601B880830E1
:1024400098428DDB434A1288D11A56D09042D4BFAD
:10245000C3EB0003C3EB0203C3EBC31301EBD17265
:1024600003EB620303FB01F2002A93FBF1F347DB6A
:102470001D4475E7002B94D0BDE87040FFF726BFE0
:102480002C4B1D881DB3344A214B12781B78002A2F
:102490000CBF00257F2503B17F351E4B1B88052B04
:1024A0007FF454AF2D4B1B681D444FE711200DF0F6
:1024B0006FFA91E73F3B82FB03021A44DC17C4EB3F
:1024C000A214002B0C44FFF663AF013460E7104BFD
:1024D0001B78002B3FF434AF38E7FFF7CFFE3468AA
:1024E0005FE7144B1D88002D3FF430AF0025D9E77E
:1024F000013C4DE7013B1D4490E73F231D442FE77E
:10250000013B1D442CE73F231D4487E74698FF1FEE
:102510006897FF1F2C97FF1F9296FF1FBC97FF1F06
:102520005698FF1F5498FF1F090402814C97FF1F04
:102530005298FF1F5C98FF1F0098FF1F9496FF1F83
:102540009896FF1F5A98FF1F5898FF1FC097FF1FAC
:10255000C897FF1FBE97FF1F4498FF1F2497FF1FB8
:102560002DE9F04110200DF013FAC830B0F57A6F64
:10257000A8BF4FF47A60B0F5FA7FB8BF4FF4FA7095
:1025800000F51673B3F57A6F844A854CDFF8148230
:10259000854E864DA8BF4FF47A6381B22220118008
:1025A000238007F0C7F82188814C242007F0C2F867
:1025B0000E200BF09FFB40F6FF72C8309042A8BF80
:1025C000104620EAE07000F2DC5381B27948934271
:1025D000A8BF134601800220238007F0ABF82188B2
:1025E000042007F0A7F801200DF0D2F904460020DE
:1025F0000DF0CEF98442B8BF044604F1C800B0F52E
:102600007A6FA8BF4FF47A60B0F5FA7FB8BF4FF485
:10261000FA7000F54873B3F57A6F674A674CA8BF44
:102620004FF47A6381B20A201180238007F082F888
:102630002188634C0C2007F07DF80F200DF0A8F9DD
:10264000C0F53F610431B1F5FA6FA8BF4FF4FA61EC
:10265000C0F54363B1F5AF6FB8BF4FF4AF61B3F5E9
:10266000FA6FA8BF4FF4FA63B3F5AF6F554AB8BF1E
:102670004FF4AF6389B2A4201180238007F05AF889
:102680002188514CA62007F055F815200BF032FB9D
:1026900041F25C2200F548709042A8BF1046B0F5A8
:1026A0002F7FB8BF4FF42F7000F5966381B2474873
:1026B0009342A8BF134601800620238007F03AF812
:1026C0002188082007F036F800274FF4AF74F9B2DC
:1026D000304609F0EBF958F8043BC3F5967303FB59
:1026E00000F085FB0023C017C0EB6310844207F1A4
:1026F0000107A8BF0446062FE9D1DFF8D480354E84
:102700002A4D0027F9B2304609F0D0F958F8043BB9
:10271000C3F5967303FB00F085FB0023C017C0EBE5
:102720006310844207F10107A8BF04460C2FE9D1CA
:10273000DFF8A480294E1D4D0027F9B2304609F07C
:10274000B5F958F8043BC3F5967303FB00F085FB1D
:102750000023C017C0EB6310844207F10107A8BF34
:1027600004460C2FE9D1143C322CB8BF322440F27D
:102770003A72A4F5AF7302FB03F3963B85FB032586
:102780001748184ADB17A1B2A3EB65133233018057
:10279000BDE8F0412A20136006F0CCBF3697FF1F3A
:1027A0003497FF1FB489FF1FC098FF1FB5814E1BD0
:1027B000D496FF1FD696FF1F4A98FF1F4898FF1F09
:1027C000BE97FF1FC897FF1F5898FF1F5A98FF1FFB
:1027D0008489FF1FBC98FF1F5489FF1FB898FF1FF3
:1027E000EE96FF1F888AFF1F2DE9F04F0C2095B051
:1027F0000BF04CFA0C200BF045FF3949DFF8E4A050
:1028000014200BF04DFF3849384808F0ABFE022188
:1028100003200BF0E3FF022104200BF0DFFF022175
:1028200005200BF0DBFF022106200BF0D7FF012172
:102830000A200BF0D3FF012109200BF0CFFF01216B
:102840000D200BF0CBFF012128200BF0C7FF012149
:1028500014200BF0C3FF012116200BF0BFFF012154
:1028600017200BF0BBFF012121200BF0B7FF022145
:102870001C200BF0B3FF01211B200BF0AFFF002148
:102880001B200BF077FF1C200BF09AFFB0FA80F3AF
:102890005B091A208AF800300CF0D6F91F200021BD
:1028A0000CF094F904200BF08BFF002800F0038259
:1028B00005200BF085FFE8B903200BF081FFC8B9B4
:1028C00004200BF07DFF002800F05C8206200BF056
:1028D00077FF074D031E18BF01232B700DE000BFCB
:1028E000001B3746F698FF1F40420F00908CFF1FD9
:1028F000EC96FF1FB54D00232B7006200BF060FFF8
:10290000B0FA80F35B094FF0000BB14A137005F089
:1029100067FB2B78002B40F0C981584606F024FF56
:10292000AC4BAD491B8840F23A72A3F5AF7302FB82
:1029300003F3963B81FB0321DA17002BA2EB611214
:10294000A649D4BF02F1320302F13103A44A0B605D
:10295000A44B12881A7001210D200BF00BFF64208C
:102960000BF098FF06244FF416710A200BF078FD47
:102970009D4A9E4800940C235D2109F0FBF8002835
:1029800000F0188164200BF085FF00210A200BF075
:1029900067FD4FF4967109200BF062FD924A94484E
:1029A00000940C235C2109F0E5F8002800F06D810B
:1029B00064200BF06FFF002109200BF051FD4FF454
:1029C000967116200BF04CFD874A8A4800940C2320
:1029D0005B2109F0CFF8002800F0478164200BF05C
:1029E00059FF002116200BF03BFD40F6B8311720AF
:1029F0000BF036FD64200BF04DFF002117200BF08B
:102A00002FFD64200BF046FF00210D200BF0B2FEDD
:102A1000794A7A481268DFF8E8917A4E7A4D7B4F0E
:102A2000DFF8EC8100230121FDF734FD01240023B0
:102A300033602B603B6089F800400F200CF0A8FF4A
:102A40003B6803440E203B600BF054F933680344A9
:102A5000336099F80030002B00F0228115200BF034
:102A600049F92B681844286004F0010003F00EFCBB
:102A7000B8F80030002B14BF4B20DC2001340BF0E1
:102A800009FF052CD9D13B6832686249624C08883D
:102A90006249002BB8BF0333002AB8BF033292103B
:102AA00032602A6809885E4E002AB8BF03329B1044
:102AB0009210A3EB000C3B602A602360594F5A4DE3
:102AC0005A4CC7F800C0034433602020531A0A440C
:102AD0002B6022600CF05CFF554B00F5FA7018601B
:102AE00019200CF055FF534B00F5FA701860BBF13C
:102AF000000F40F00881B8F80030002B00F00A8188
:102B00004D4B012404201C600BF05AFE18B94B4BAE
:102B1000344A1C7010704A4B1B881C2B00F0E88054
:102B2000484C04F1C80523200BF0E4F844F8040FE6
:102B300001200BF0AFFEA542F5D19AF8003023B189
:102B4000414B1B78002B40F0F280002121200BF03C
:102B500011FE3E4A3E4B10783E4C187006F0B2FD16
:102B600003F08CFB3C4B049304A90AA8029408943C
:102B7000FDF710FD0AA910A80E94FDF70BFD45F610
:102B8000BF520EA935480AF043FE0E9B10A8DB6821
:102B90009847089B0AA8DB689847029B04A8DB6853
:102BA000984715B0BDE8F08F04200BF009FE00280F
:102BB00000F0C28003200BF003FE0028F4D00320B5
:102BC0000BF0FEFD0028F5D1EEE700BFEC96FF1FED
:102BD0009497FF1FEE96FF1FB5814E1B888AFF1F3B
:102BE0000A98FF1FBA95FF1F908CFF1FC098FF1F08
:102BF000B898FF1FBC98FF1FD889FF1FB096FF1F12
:102C00009496FF1FAC96FF1FF098FF1FEC98FF1FD4
:102C10003897FF1F948AFF1FC497FF1F968AFF1FD4
:102C2000E898FF1FDC98FF1FE098FF1FE498FF1F44
:102C30001098FF1FCC97FF1FD897FF1F1E97FF1FED
:102C40004698FF1FC095FF1FF798FF1FA095FF1F15
:102C5000B895FF1FD8310100650800000497FF1FD9
:102C600004200BF0ADFD00287FD003200BF0A8FD61
:102C70000028F5D003200BF0A3FD0028F5D1EFE7E5
:102C800004200BF09DFD002864D003200BF098FD7C
:102C90000028F5D003200BF093FD0028F5D1EFE7D5
:102CA00011200CF075FE2B681844DCE615B0BDE869
:102CB000F04F08F011BB06200BF082FD00287FF4D6
:102CC000F7AD03200BF07CFD00283FF4F1AD0520AB
:102CD0000BF076FD00283FF4EBAD05200BF070FD06
:102CE000002852D0374D00232B704FF0010B0CE61B
:102CF000354B188800283FF413AF344BC0B2197815
:102D000006F0A4FA0CE7FFF72BFCB8F80030002B14
:102D10007FF4F6AE4FF4FA7003F0C8FA03F0B2FA9B
:102D200005F0D8FA4FF4AF600BF0B4FDE8E60121EE
:102D300021200BF01FFD0CE705200BF041FD0028C2
:102D40007FF438AF06200BF03BFD00287FF432AF54
:102D50000CF016FF05200BF033FD002895D106205E
:102D60000BF02EFD002890D1F2E705200BF028FD96
:102D700000287FF47AAF06200BF022FD00287FF4B4
:102D800074AFE5E70F4D2870B7E503200BF018FD91
:102D900004460028A6D104200BF012FD034620B9FA
:102DA000084D4FF0010B2B70AFE506200BF008FD2E
:102DB000044D031E18BF01232B704FF0010B234657
:102DC000A3E500BFEC96FF1FB697FF1FB897FF1F44
:102DD0002DE9F04FA24D2C78012C97B000F03782EE
:102DE000022C00F0B781002C00F0E8829D4F9E4835
:102DF00097F800909D4F9E493F7801979D4F90F81E
:102E000000C097F800809C489C4F91F800B03F7834
:102E10009B4906789B4803979B4F9C4B9C4A0C7898
:102E200090F800E09B499C483F7804971B789B4FA3
:102E3000127809780078029700272F70984D85F84E
:102E400000C0984D85F800B0974D2B70974D2A70B3
:102E5000974D2C70974D85F800C0974D2970002E26
:102E600000F0D080954D2D8805952E46944D012774
:102E7000182E2F7000F2D080059D0127A5F10C06B9
:102E800023B1904B1D88002D40F02F838E4B1B8863
:102E9000002B40F0C3808D4B8D4D1B782D78013376
:102EA000A3EB4E03002D00F0C580BEF1000F00F033
:102EB0002B83002840F02B85013B8648039D00783A
:102EC000A3EB40031344A3EB0B0315B1002A00F05E
:102ED0002983A3EB0903B9F1000F02D0002840F0C9
:102EE0001F83019A9B1AA3EB4803049A2344A3EB84
:102EF0000C03A3EB410302EB420203EB8201764B8E
:102F000076481960764B774C1A8800682488033A13
:102F100002EB4203744A1288C2EBC202104401EB76
:102F20008303724A2344724C12882468C2EBC202A3
:102F30002244704C0C3B54F82000334403446E4848
:102F400050F8222013440FB16C4A11606C496D4A4D
:102F5000098807298CBF01200020107040F2EE8004
:102F6000694A6A4812680180032A00F0A684002595
:102F7000674A684C157022689A4200F0E5806648FE
:102F8000664F02680692069E654A3E6001271770EA
:102F900002680792634A1788079A921BBA4252D96D
:102FA000614E624F326833609A1A3A60002D00F029
:102FB000CF805B4A1578002D40F0A98223605C4DDC
:102FC0002A689A4246D004685A4F0994099C3E6880
:102FD000A41B8C42C0F08C82991A00F17D84564C5F
:102FE000266886EAE674A4EBE6748C4240F3B98462
:102FF0004E4909680029B8BF49428C42B8BF531CEA
:1030000000F07BBC2F4D2D880D2D00F05E822C4DE5
:1030100000272F703E4633E7002631E7013B052BA2
:1030200000F23085DFE813F07603BC029E02250330
:10303000FA02B4031B1A00283FF43FAFBEF1000FA1
:1030400018BF013B39E72360374B1B68002DB6D111
:10305000374A1360029A136017B0BDE8F08F00BFC3
:103060009C97FF1FAA95FF1FAE95FF1FAB95FF1FF3
:103070009C95FF1FAC95FF1F9E95FF1FB095FF1FEE
:10308000AD95FF1F9795FF1FE097FF1F9D95FF1FB1
:103090009B95FF1FAF95FF1F9895FF1F5097FF1F30
:1030A0009095FF1F9195FF1F9295FF1F9395FF1F0E
:1030B0009495FF1F9595FF1F9695FF1F4698FF1F3C
:1030C0004498FF1FD097FF1F5897FF1F848AFF1F48
:1030D0009A95FF1F9995FF1F5497FF1F8C97FF1F0D
:1030E000DE97FF1FC498FF1F8697FF1F9C96FF1F48
:1030F000A096FF1FB0330100683801004C98FF1FF5
:103100007897FF1F7097FF1FD897FF1FDC89FF1F5D
:103110006A97FF1FA497FF1F309AFF1FA097FF1FFA
:10312000DC97FF1F1A97FF1F8097FF1F7C97FF1FD9
:103130006C97FF1FA897FF1F7497FF1F83480022FB
:1031400011460280154613E7814A824816681FE738
:1031500023607DE7DFF80092804F814E0DF1280853
:103160000024E1B2384608F0A1FC59F8043BC3F54D
:10317000967303FB00F086FB00230134C017C0EBFD
:1031800063100C2C48F8040BEBD1764B129E1B8875
:103190000B9F119A1398149C73499E42ACBF002652
:1031A0000126BB42D4BF002701279342D8BF4FF06E
:1031B000000E159A0E70C8BF4FF0010E83420D9994
:1031C000D4BF00200120A342D4BF00240124934295
:1031D000D4BF002201228B420E99D4BF4FF0000BC6
:1031E0004FF0010B8B4261490F706149614F81F8CB
:1031F00000E0614997F8009008706049604F0C70DA
:1032000060493F780A7001975F49604F81F800B0CC
:1032100097F800805E495F4FD4BF002301230B70F5
:103220003F785D4903975D4F91F800C05C493F7856
:103230000C7804975B492F780978BA465A4F029761
:103240005746012F9ABF0137FFB20027F5E5DFF897
:103250005C91574F424E0DF128080024E1B23846E8
:1032600008F024FC59F8043BC3F5967303FB00F007
:1032700086FB00230134C017C0EB63100C2C48F808
:10328000040BEBD1374B0D991888424B0E9A0A9CD0
:103290008142ACBF0021012119700C9B0391904227
:1032A000D4BF4FF000094FF001099842D4BF00236A
:1032B000012301930B9B019A11999842129BD4BF51
:1032C0004FF000084FF00108A042D4BF00240124B1
:1032D0009842284B83F80090294B1A702B4B83F8A7
:1032E00000802F4B1C702C4BD4BF4FF0000C4FF0C4
:1032F000010C83F800C088422A4BD4BF0021012171
:103300001970149B984200F3F98000230F9A9042A1
:10331000284A1370284BD4BF0020012018701F4B7F
:103320001B780493204B02930F48174B06781048E4
:1033300093F800B0134A164B90F800E02F780E482F
:103340001B7812780078BA467AE700BFDC89FF1F45
:10335000A097FF1F309AFF1F5489FF1FB898FF1FC7
:10336000B5814E1BEE96FF1F9E95FF1F9A95FF1F7E
:103370009795FF1FAA95FF1F9895FF1F9995FF1F0F
:10338000AB95FF1F9B95FF1F9C95FF1FAC95FF1FE3
:103390009D95FF1FB095FF1FAE95FF1FE097FF1F84
:1033A000AD95FF1FAF95FF1F5097FF1F8489FF1F2B
:1033B000BC98FF1FAA98FF1F0C98FF1FDFF8F4921C
:1033C000BD4FBE4E0DF12808E1B2384608F06EFB45
:1033D00059F8043BC3F5967303FB00F086FB00230A
:1033E0000134C017C0EB6310062C48F8040BEBD176
:1033F000B34B0A9A1B8804929A420B9A0C99DDF8F7
:1034000034B00392ACBF4FF0000A4FF0010A934270
:10341000AC4A0E9E0F980291D4BF4FF000094FF0B6
:1034200001098B42D4BF4FF000084FF0010811880A
:103430005B450AEB0902D4BF002701274244B3428F
:10344000D4BF4FF0000E4FF0010E3A448342D4BF78
:103450004FF0000C4FF0010C7244624401929A4A02
:1034600082F800A0DFF864A2019A8AF80090DFF8E1
:10347000609289F80080DFF85C8288F80070964FCF
:1034800087F800E0954F87F800C0954FDFF854C2E9
:103490003A70954F4FF0000E012987F800E08CBF7D
:1034A0004FF0000E4FF0010E83428CF800E03BDD40
:1034B000B34200F32F82012900F2B4818B4A0494B5
:1034C00023463C7002928A4C97E1002B3FF49FAD5B
:1034D000884F3F880597884F4FF0010A87F800A072
:1034E000059F182F7FF6C8AC01270D3D2E44CDE473
:1034F0001346029A136017B0BDE8F08F139B9842F1
:10350000D4BF0023012301E7013B1B1AD5E4056862
:103510000895089D794E0D443560002515704DE5E0
:10352000013BDEE40133D4E4B34240F37B815B45ED
:1035300000F35C81012940F25981029A934240F3E1
:103540007B81039A934200F37182012940F26E82DB
:10355000049A9A4280F27B8101223A70634A644C59
:1035600002929DE1664B019A1B78A3EB49039B1ADB
:10357000A8EB8808CEEB8E72CEEB82024344134454
:10358000039A03EB420303EB8103002840F0D5814B
:1035900001221344049A02EB420203EB8201AEE4DF
:1035A000584D019BAB71584B2A711B786B70574B70
:1035B00085F805901B7885F80780A8702C7285F82F
:1035C00000E0EB704FF0010805F8091FDFF84091AB
:1035D000CDF804C042464B4B5FFA88FC08F1FF3A35
:1035E0004C467046002107E0022A07D0AB4209D0C2
:1035F00013F8010F14F8012F9042F5D10131AB42BD
:10360000C9B2F5D1092900F2B88108F10108B8F171
:10361000110F00F0F78119F80A2FDCE7384B019DF4
:103620001B78A3EB49035B1B384DA8EB8808434488
:1036300095F80080CEEB8E75B0FA80F0CEEB850564
:1036400040092B4403EB8003B8F1000F00D1033392
:10365000039803EB400303EB810313442344049AD0
:10366000A3EB0B03A3EB4C0302EB420203EB82013F
:1036700045E4234B019A1B78A3EB49039B1AA8EB63
:103680008808CEEB8E72CEEB820243441344039A39
:1036900003EB420303EB8103002840F04481012245
:1036A0001344049AC2F1060202EB420203EB8201C8
:1036B00025E400BFB489FF1FC098FF1FB5814E1BD2
:1036C000EE96FF1F7098FF1FA495FF1FA595FF1F83
:1036D000A695FF1FA795FF1FA895FF1FA995FF1F80
:1036E0006898FF1F0498FF1FE097FF1F5097FF1F68
:1036F000AC97FF1F4698FF1F4498FF1FA897FF1F16
:10370000848AFF1F9898FF1F9A95FF1F9995FF1FA6
:1037100090340100A64B1B780133A3EB4E05A54B5B
:103720001B78002B40F013812B1A9A46002840F09A
:103730007681A14B1D78AAEB45031344A3EB0B0B39
:10374000039B13B10AB90BF1010BABEB0903B9F100
:10375000000F02D0002D18BF013B019A9B1AA3EB6A
:1037600048032344A3EB0C03A3EB4103BEF1000F7A
:1037700002D108B105B10933B8F1000F01D101B18F
:103780000A3B049A02EB420203EB8201FFF7B7BB4C
:10379000874B019D1B78A3EB49035B1B864DA8EB70
:1037A0008808434495F80080CEEB8E75B0FA80F01F
:1037B000CEEB850540092B4403EB8003B8F1000FE5
:1037C00000D10333039803EB400303EB810313445D
:1037D000049A2344A3EB0B03C2F10602A3EB4C03B0
:1037E00002EB420203EB8201FFF789BB734A744C80
:1037F000029205233B703B7804932370714B724A0D
:103800001C78724B92F800C01978714B1B780393A7
:10381000704B93F80090704B1B7801936F4B93F8AB
:10382000008081E55B457FF788AE029A934200F302
:103830009E80012940F29B80039A93427FF788AED5
:10384000049A9A42C0F2FC80012940F2F9805C4C53
:1038500094F800C0BCF1010F40F2058109B187F86E
:1038600000C0DFF87CC1BCF800C0BCF1000F00F064
:10387000ED80019A002A40F0E9805A4A1288013A04
:1038800092B2062A00F2E280574A1278002A00F02B
:10389000DD80564A1268012A484A029200F0E6800A
:1038A0000329A8D18342A6DDB342A4DC2378062BEA
:1038B000A1D107233B7004939FE74D4A1268002A69
:1038C0007FF755AB4B4A4C481278007802430CBF47
:1038D00001250025FFF74CBB45490E6886EAE674D2
:1038E000D11AA4EBE674A14239DA444909680029E7
:1038F000B8BF49428C4200DA531E02680A920A9A03
:103900003A60029A2B60136017B0BDE8F08F1B1A63
:10391000FFF794BB03293C7025D0284A0494234622
:103920000292274C69E7244A1278002A3FF4B7AE86
:10393000BBF1000218BF0122B2E61F4A1278002A2A
:103940003FF426AEBBF1000218BF012221E6BEF112
:10395000000F71D0002860D16B1E9A46E9E6931BD8
:10396000CBE79319C9E7154B154C029343E70422A3
:103970003A70124A124C029292E70D4B204A1B7881
:1039800052F82A200399013360461344DDF804C03D
:10399000A3EB0B030B44BCF1000F3FF4F2AE012884
:1039A0007FF4EFAEBBF1000F18BF013BE9E600BFAB
:1039B000848AFF1F9A95FF1F9995FF1F5097FF1F3D
:1039C000AC97FF1FAD95FF1FAE95FF1FAF95FF1F73
:1039D000B095FF1FAA95FF1FAB95FF1FAC95FF1F6A
:1039E0000698FF1F5098FF1F9698FF1FD897FF1F3C
:1039F0007497FF1FA998FF1FA898FF1F7C97FF1FB0
:103A0000208AFF1F4A4B4B4A1B78D26B0133134469
:103A1000039AA3EB0B031344B3E62B1A9A465346BF
:103A2000BEF1000F18BF013B9A4682E603223A70AE
:103A3000414A424C029233E76B1E1B1A9A4678E6C3
:103A400002223A703C4A3D4C029229E73C4A1268F5
:103A5000012A394A02927FF423AF3A4A4FF0030C0D
:103A600082F800C01CE7344A029219E71268DFF8B6
:103A7000D8E04FF00C0C92FBFCF80CFB1822AEF8CF
:103A80000020EAE7314D019BAB71314B85F8059081
:103A90001B786B702F4B85F807801B78EB70A87034
:103AA0002A712C7285F800E0012305F8091FDFF860
:103AB000A8909846DAB22549019203F1FF3A4846A8
:103AC00074460022444509D0B8F1020F06D08D4259
:103AD00007D011F8014F10F8018FF3E70132D2B28D
:103AE000F5E7092A05D801331C2B16D019F80A8FDF
:103AF000E0E70F4B194A1B7852F82A200133134490
:103B0000039AA3EB0B031344BCF1000F3FF439AE4F
:103B1000019A012A3FF446AF33E6054B0F4A1B7862
:103B2000926E01331344039AA3EB0B03134428E66C
:103B3000848AFF1F208AFF1F5097FF1FAC97FF1F2B
:103B4000D897FF1FD789FF1F9097FF1F9898FF1FD7
:103B50009A95FF1F9995FF1F34370100988AFF1F20
:103B6000A34B1B78002B40F036812DE9F04F0E203F
:103B700091B00AF0BFF80EF03BF801469D489E4C0C
:103B80009E4DFCF7D1FC9B48FCF7A2FC0EF04AFAD4
:103B900080F30C002060FFF71BF92B68012B5DD030
:103BA000022B00F01385032B00F07C81944C954E82
:103BB0002368954C0F930F9B22683360991A934AA0
:103BC0001288013A914200F29C83914C22689A1A21
:103BD000092A00F2A0838F4C22689A1A0D2A00F25B
:103BE0008B838D4C22689A1A252A1CD98B4B1B88F3
:103BF00013B98B4B1B780BB1FEF722F8FEF77EF85A
:103C0000884B1B881B3B9BB2022B08D8864B1B782A
:103C10002BB1864B1B7813B12B68012B01D002F01E
:103C200059FB33682360824C22689A1A502A00F2AA
:103C3000498380490A689A1A052A03D97E4A0B608B
:103C4000012010707D4A1288012A00F0958205F04B
:103C50002BFC11B0BDE8F04F05F0C2B8DFF8E081F1
:103C6000784BB8F800001A78824240F0BC80764F5A
:103C7000764B38881A78824204D0754E3278002A02
:103C800040F00C86734A236812885D4C9A4280F299
:103C9000A48021680A917049704A0B600A9B1360E6
:103CA00002232B60DFF8B891DFF8B8A1B9F8003033
:103CB000BAF8002013439BB2002B40F077836A4B85
:103CC0001E680E200AF016F86FF454731E448642E4
:103CD00002DC664B00221A70654B1B88002B00F03B
:103CE000A185644B64491A780B78934262D0002A0C
:103CF00060D0624B1E78002E00F05A87604807782B
:103D0000002F40F05387DFF87CC15F4B8CF80070C8
:103D1000DFF878A1DFF878C11B788AF800708CF89A
:103D200000700127CDF804C0077033B10027077079
:103D30000198077001208AF80000564890F800E0CA
:103D4000BEF1000F01F0468053480778002F41F084
:103D50005E81DFF83CC18CF80070012707704F4886
:103D60000078002800F09A86464F97F800C0BCF112
:103D7000000F41F07381DFF8088188F800C04FF030
:103D8000010C87F800C0BEF1000F40F08786334376
:103D9000184340F08386244B1B78002B40F0838629
:103DA00037480370394803703B4803703848037044
:103DB000344803700A701B4B1B88A3F11B02012AB5
:103DC00040F23C851D2B7FF4F2AE174A344B12783B
:103DD0000C4E1A70ECE607F0FBB8114A1278002A74
:103DE0007FF457AF5EE7C0B2187005F0EDF93EE71B
:103DF000EC96FF1FB096FF1F6098FF1FD897FF1F1C
:103E0000309AFF1FF096FF1FDC96FF1F5089FF1F9F
:103E1000E096FF1FE496FF1FE896FF1F6297FF1FC3
:103E20006097FF1F4698FF1F4498FF1F9695FF1F3E
:103E3000B495FF1F1497FF1F1097FF1F1897FF1FC0
:103E4000A095FF1FB895FF1F0A98FF1FBA95FF1F87
:103E50001E97FF1FD696FF1F9897FF1FD896FF1F2C
:103E6000B297FF1FB497FF1FAC96FF1F6698FF1F06
:103E70005098FF1FAA98FF1FAE97FF1F9395FF1F33
:103E8000A998FF1FA898FF1F9495FF1F0898FF1F70
:103E90009698FF1F9095FF1FB298FF1F9195FF1FE7
:103EA000AD97FF1FA24B21681A888A4258DDA14BAB
:103EB0001B78002B54D1DFF8809299F800007F28FE
:103EC0000BDD7F38A3F15533A3FB0023DB0803EBA5
:103ED0004303A0EB83007330C0B2984B00931B8860
:103EE00089F80000002B41F0C380DFF854A29AF853
:103EF0000030002B00F06D86924F3B78002B00F0D5
:103F00006886914EDFF844B24FF0000811E0ABFB39
:103F10000213DB0803EB4303A2EB830202F17300FD
:103F2000C0B205F00FFA3B7808F10108434540F3B1
:103F3000508699F8000056F8043F18447F28A0F1F5
:103F40007F02E4DC0028C0F10002E9DAABFB0213D7
:103F5000DB0803EB4303A2EB8302C2F10C00DFE7B3
:103F60007B4E33687F2B00F3C884002B0ADA774836
:103F70005B42A0FB0370C00800EB4000A3EB800392
:103F8000C3F10C03DFF8B09199F800709F4200F084
:103F90004585704B1B88002B46D16F4B6F491B68C2
:103FA00009889A4241F309801346891A01F05C801E
:103FB0009B1AC3EB833301EBD17203EB620303FB68
:103FC00001F2002A93FBF1F0C1F21581FDF744F9EB
:103FD000C0F3C6100DF00CFE614B804618880DF042
:103FE00007FE6049824640460DF056FE01465046A7
:103FF0000DF052FE41460DF047FD4FF07E518046D8
:104000000DF0E8FF002840F0FF87574940460DF0CB
:10401000FFFF002841F0B98040460EF029F8C3B2F6
:10402000DFF8488188F800307F2F0ADD474B7F3F5B
:10403000A3FB0723DB0803EB4303A7EB83077337DB
:10404000FFB2DFF8FCA089F800709AF80030002B6E
:1040500040F0F185464B474A029301921B78127853
:104060001A4340F0BE86354B0093019B1B78002B12
:1040700040F05A879AF80030002B00F0A086009B91
:104080001B88002B00F0868730687F2840F3C385AB
:104090002E4A7F38A2FB0012D20802EB4202A0EBAC
:1040A000820073303060002B40F030879AF8003087
:1040B000002B00F08284234F3B78002B00F07D849E
:1040C000214ACDF80C900023B146DFF8A0809B4632
:1040D000164614E01D4BA3FB0102D20802EB42027C
:1040E000A1EB820101F1730098F80010C0B205F055
:1040F000EBF83A780BF1010B5A4540F35B8456F824
:10410000040FD9F8002010447F28A0F17F01E1DCE2
:104110000028C0F10001E7DA0C4BA3FB0102D20832
:1041200002EB4202A1EB8201C1F10C00DCE700BF0F
:10413000D696FF1F6097FF1FB995FF1F6498FF1F5A
:104140000898FF1F4889FF1F5C8AFF1FABAAAAAA15
:104150005097FF1FCC98FF1FD096FF1FD496FF1FCC
:10416000C898FF1FCDCCCC3D0000FE42CE98FF1F6B
:10417000B298FF1F9698FF1F7249734A0868126829
:10418000A82441F6FF7104FB0011704C183A84FB1F
:1041900001042A200C4400FB02F2C817C0EB643073
:1041A0000029ACBFA0F15401A0F1550168480A44B0
:1041B00068490478096868486FF0140505FB042213
:1041C0000260002900F02483644C207898B1644D8B
:1041D0002868824200F3A98380F2E186D1F17F0151
:1041E00048BF033189100131401A9042B8BF1046D0
:1041F0002860002222705B4A1288002A00F00F8398
:10420000594951F82220002A00F04384B3FBF2F10F
:1042100002FB1133C3EBC30302EBD27103EB0313B5
:1042200003EB610303FB02F1002993FBF2F34F4A16
:10423000B8BF03F1FF3352F82330A3F2FF734C49A8
:1042400008684C4900FB03F303F57D33162203F5A0
:10425000607302FB03F303F57D3303F5607381FBA9
:104260000321DA17C2EB61423D49002B0968424B3A
:10427000ACBF0B3A0C3A0A441A60404B40491B88C9
:10428000404803F27C7302FB03F35B0003F5FC631D
:104290000A8880FB0310643A1844D917002B4FEAB0
:1042A0004202C1EBE021C0F28585114481F30C018B
:1042B00028200AF0D5F805F0F7F811B0BDE8F04F66
:1042C00004F08EBD03F0C2FE2F4B3049304A09780E
:1042D0001B7812780B432F4913432F4A0978127821
:1042E0000B4313432D4A1278134300F0808701F0EB
:1042F000D1FF336823609CE4FEF718F8336823602D
:104300006FE4FCF7F1FF33682360254C22689A1AAA
:10431000092A7FF660AC234FFDF7C8F8FDF71AFDB8
:104320003B88032B02D1FCF73BFB3B88042B01D1DC
:10433000FCF76AFC1C4B1B88032B00F0A783336837
:10434000236048E41C8AFF1F5097FF1F090002806A
:104350006798FF1F4C97FF1FB498FF1F1097FF1F10
:10436000F896FF1F0E97FF1F4438010054350100D7
:104370002497FF1F491B8940FC96FF1F0097FF1FD2
:104380000C97FF1F832008829698FF1FA998FF1F94
:104390000898FF1FB298FF1FA898FF1F6097FF1F84
:1043A000E096FF1F9296FF1FBC97FF1F20200BF087
:1043B000EFFA9B4B02901B68039319200BF0E8FA6D
:1043C000984B994A1B8812881344984A1168984A56
:1043D000834610688B45D4BF002201225E10B0EBEB
:1043E000530F944B1B6840F339829E424FF00003F9
:1043F000B4BF012018460490ACBF012018460893B2
:10440000079009930E20CDE9001209F073FC8A4B46
:104410008A4A1B68DFF828C205930133802B16688F
:104420000690019A9CF800000099A8BF8023012BF8
:10443000B8BF0123904200F02D8220680B90814884
:10444000DDF82CE0C0F800E020680C900C98A0EBA0
:104450000E00282812D97C4890F800E0BEF1000F29
:1044600040F03F828B4540F33F8278494FF0010E88
:1044700080F800E0087880EA0E0008708CF80020D0
:10448000734ADFF8D0B11278002A64D09BF800108C
:10449000914260D03988994200F0B1846E493B80E6
:1044A0006E4B09784FF0010C83F800C0DFF8B0C103
:1044B0006C4B8BF800201B788CF80010002B67D118
:1044C000029B039A934263DC049B1BB1B9F8003052
:1044D000002B5DD1069AA6F252339A42BFF6F1AB99
:1044E000BAF80030002B3FF4ECAB079B002B4FD108
:1044F0005D4B1B8813B1099B002B49D1089B002BF6
:104500003FF4DFAB594A1378002B7FF4DAABDFF8C6
:1045100060810123137098F80020002A40F08486FF
:10452000544A1278002A40F0B286534A1278002A80
:1045300000F00D87514A1278002A7FF4C2AB504A2E
:104540001278002A3FF4BDAB3A880A323A80434AD7
:104550001370FFF7B6BB4049DFF804C109780029A2
:10456000A6D09CF800E07145A2D005984B2840F3F6
:104570004C841833802BB7F800E0A8BF80239E45F9
:1045800096D03B80354B4FF0010E83F800E08FE76B
:104590003C4B18683C4B1A883C4B1B881A443C4BDC
:1045A0001968431C802BA8BF8023012BB8BF0123AF
:1045B000B1EB520FC0F26081A3F149020F2A3FF61E
:1045C00080AB483BA8F80030FFF77BBB314A20683E
:1045D0001288824204DB304B1B78002B00F087816D
:1045E0002E4C21680D912E490D9B09685B1A2D49AF
:1045F00009888B4260D800295ED02B4B198800298E
:104600003FF4D5AA294B1B688342B8BF034628480C
:104610009A42008840F3C385264B1A60C9B29EE0D7
:104620001098FF1F4898FF1F4A98FF1FCC97FF1F45
:104630001898FF1F1498FF1F4C98FF1FAC96FF1F80
:10464000AF97FF1F6497FF1F6997FF1F6897FF1FB2
:104650001C98FF1FB097FF1F1D98FF1F1E97FF1F7D
:10466000B197FF1F0C98FF1F8E96FF1F6698FF1FC4
:10467000E097FF1F9095FF1F9195FF1F9295FF1FD9
:104680009395FF1F5497FF1F3697FF1F3497FF1F07
:104690002897FF1FD696FF1F6097FF1F309AFF1FB6
:1046A000D896FF1FCA98FF1FCC98FF1F9897FF1F2F
:1046B000D496FF1FD096FF1FA24BA3491B688342CD
:1046C000B8BF03469A42088800F3FF809F49A04E76
:1046D00009888342A8BF0346336000299ED19A42CD
:1046E000C8BF134640F3F980811A00F099839B1AE2
:1046F000C3EB833301EBD17203EB620393FBF1F065
:1047000003FB01F10029C0F25185FCF7A5FDC0F3C0
:10471000C6100DF06DFA8F4B064618880DF068FA3A
:104720008D49074630460DF0B7FA014638460DF080
:10473000B3FA31460DF0A8F94FF07E5106460DF060
:1047400049FC002840F03983844930460DF060FC74
:10475000002840F01C8430460DF08AFCC1B2DFF81E
:104760000082804E88F80010FCF7BEFD30687F287C
:1047700040F37D817C4B7F38A3FB0023DB0803EBF8
:104780004303A0EB83007330784B00931B883060A9
:10479000002B40F09A81DFF8D8A19AF80030002B66
:1047A00000F04881734F3B78002B00F04381DFF825
:1047B000C8B14FF0000914E06B4BA3FB0213DB08F8
:1047C00003EB4303A2EB830202F1730098F800109D
:1047D000C0B204F079FD3B7809F101094B4540F383
:1047E00029815BF8040F336818447F28A0F17F0209
:1047F000E2DC0028C0F10002E8DA5B4BA3FB021305
:10480000DB0803EB4303A2EB8302C2F10C00DDE7FC
:104810005A490A605A4A1288002A7FF4F1AC594B6F
:104820001A682AE5584A59491370594A0B7013708F
:104830004F49584A0B701370FFF7BDBADFF8588123
:1048400098F80030002B37D0544A1278002A40F0F4
:104850007683534F534E3B70FFF7AAB99E424FF0F9
:104860000003B4BF012018460890ACBF01201846D1
:10487000079309900493C5E5474A1278002A48D166
:104880003A889A423FF41DAA3B80474B01221A7096
:10489000FFF717BA4548D0F800E0D5E5C0B2187068
:1048A00004F0A0FC38483249394A002303700B70E9
:1048B00013703370FFF7E6B9394F3B78002B40F0A7
:1048C0007183384E3B70FFF773B9214B1A601F4B51
:1048D000198800297FF4A2AE13468342A8BF03467D
:1048E00002E78B453FF7CAAD00210170C6E5012301
:1048F0002F4C2C4E2B60FFF75BB91B487F3BA0FB76
:104900000370C00800EB4000A3EB80037333FFF794
:1049100039BB4A2840F30E831833802B3A88A8BF4E
:1049200080239A42B0D1FFF7CCB9D1F17F0148BFC3
:10493000033100EBA10001309042A8BF104628606F
:1049400057E400BF9897FF1FD496FF1FCC98FF1F16
:10495000D096FF1FC898FF1FCDCCCC3D0000FE4273
:10496000CE98FF1F5097FF1FABAAAAAA6498FF1FFB
:104970000898FF1F4889FF1F5C8AFF1FF896FF1FDA
:104980000E97FF1FFC96FF1FA998FF1F9698FF1F09
:10499000B298FF1FA898FF1F4498FF1F9695FF1F0E
:1049A000AD97FF1FF096FF1F1E97FF1F6497FF1F15
:1049B000309AFF1F4E46DDF80C90029B1B78002BAF
:1049C00040F04B82019B1B78002B40F04282009B01
:1049D0001B88002B00F03782029A9AF80030127878
:1049E0001343019A1278134300F0E883B14B1B780C
:1049F000002B51D0B04A1378082B4DD80133DBB2CD
:104A00001370AE4A30681268AD49013B821A41F812
:104A10002320AC4B21681A8889F800008A42AA4CEE
:104A2000BFF6C5A82268A94B0E920E9AA84E1A602E
:104A3000FFF7BEB89F4B1B78002B40F0AC80A54B16
:104A40001B78002B56D1A44B1B78002B4ED1009B1A
:104A50001B88002B44D0A14B1B78002B3BD1A04AD4
:104A60003168117003239A4E2B60FFF7A1B800281C
:104A7000BFF68AAE9B4B4042A3FB0023DB0803EB4F
:104A80004303A0EB8300C0F10C007DE6FBF74AFF77
:104A900055E46B23FFF7D3BB3068BAE7924B1B7822
:104AA000002B3FF487A98C480378002B40F0B38299
:104AB000804F8E4E3B708E4F3B70864F3B70012374
:104AC000037003233370FFF775B998F80010C0B274
:104AD00004F0FAFB5FE67F21422004F0B7FBBEE75B
:104AE00098F80010307804F0EFFBB4E73078FCF76A
:104AF00023FAACE73368A3F10C007F2840F39381DD
:104B0000784A8B3BA2FB0312D20802EB4202A3EBD2
:104B1000820303F1730098F80010C0B204F0D4FBD4
:104B20009AF80030002B8ED0634F3B78002B8AD050
:104B3000DFF8C091DFF8ACB14FF0000A13E0ABFB37
:104B40000213DB0803EB4303A2EB830202F17300C1
:104B500098F80010C0B204F0B7FB3B780AF1010AE4
:104B600053457FF770AF326859F8043F1344A3F1FF
:104B70000C007F28A3F18B02E1DC0028C3F10C03B9
:104B8000E6DAABFB0312D20802EB4202A3EB82038C
:104B9000C3F10C00DCE77F21402004F057FB474ABB
:104BA000454B3168116000221A7048E700230370FA
:104BB000514B1B78002B3FF4C0A8DFF834A19AF8C2
:104BC0000000002800F0F58200208AF80000FFF7BE
:104BD000B4B8404B1B78002B40F062823E4B1B78F0
:104BE000002B40F05882009B1B88002B00F04E8267
:104BF000304B1B78002B40F04482384B1B78002B45
:104C000040F03A823D4B2F4A2168128800201860FC
:104C100001232B6002E70028BFF644AA314A404234
:104C2000A2FB0012D20802EB4202A0EB8200C0F10C
:104C30000C00FFF737BA324B00931B88002B40F073
:104C40007F82244B0293244B01931B4F3B78002B14
:104C500059D0284A0396DFF88CB04FF0000816466A
:104C600010E0ABFB0103DB0803EB4303A1EB830183
:104C700001F17300C0B204F065FB3B7808F1010854
:104C800043453FDD99F8000056F8043F18447F285B
:104C9000A0F17F01E5DC0028C0F10001EADAABFBFE
:104CA0000103DB0803EB4303A1EB8301C1F10C001B
:104CB000E0E700BFA998FF1F4889FF1FA498FF1FC6
:104CC000608AFF1FD696FF1F309AFF1F4499FF1F6F
:104CD000F096FF1FB298FF1F9698FF1FA898FF1F1E
:104CE000B995FF1FABAAAAAA4498FF1FD789FF1F37
:104CF0000898FF1F5C8AFF1F9495FF1FD096FF1F27
:104D00006498FF1F039E029B1B78002B3FF4ADA904
:104D100099F80030A3F10C007F2840F31682C04AB6
:104D20008B3BA2FB0312D20802EB4202A3EB8203ED
:104D300003F17300C0B204F005FB9AF80030002BB9
:104D400000F0ED80B74F3B78002B00F05782B6495A
:104D50000396DFF8CCB24FF000080E4611E0ABFB33
:104D60000203DB0803EB4303A2EB830202F17300AF
:104D7000C0B204F0E7FA3B7808F10108434540F37C
:104D8000078256F8042F99F800301344A3F10C0061
:104D90007F28A3F18B02E2DC0028C3F10C03E7DAE1
:104DA000ABFB0302D20802EB4202A3EB8203C3F186
:104DB0000C00DDE70139FFF778BA0121CFE4019B50
:104DC0001B78029A127813437FF459A9009B1B8821
:104DD000FFF75AB99548007800283EF4D8AFFEF79F
:104DE000C3BF934A00921288002A8ED0384604F03E
:104DF000A9FA9AF80030002B7FF427AF83E78D4B98
:104E0000DFF834C21978FFF753BB243B012BB7F806
:104E100000E0B8BF01239E457FF4B3ABFFF748BB6A
:104E200041F6FF7071E40028BFF675AE7C4AC3F10D
:104E30000C03A2FB0312D20802EB4202A3EB820393
:104E4000C3F10C0067E67D4B3078197804F03CFA2A
:104E5000C2E53078FCF770F8B9E53368A3F10C00CF
:104E60007F2840F382816E4A8B3BA2FB0312D2085B
:104E700002EB4202A3EB820303F17300DFF8BC8173
:104E8000C0B298F8001004F01FFA9AF80030002B16
:104E90003FF498AD634F3B78002B3FF493AD624AEB
:104EA000CDF80C900023B1469B46164614E05C4BAF
:104EB000A3FB0C12D20802EB4202ACEB820C0CF109
:104EC000730098F80010C0B204F0FEF93A780BF1C4
:104ED000010B5A4540F35F8156F8041FD9F80020B2
:104EE0001144A1F10C007F28A1F18B0CDFDC00281C
:104EF000C1F10C01E5DA4A4BA3FB0102D20802EB37
:104F00004202A1EB8201C1F10C00DAE7DFF82C814B
:104F1000C0B298F8001004F0D7F9FFF7C7B8019BAA
:104F20001B78002B3FF44DAF99F80000FBF7AEFE65
:104F3000FFF7A0B8243B012BB8BF0123A0E4404FEA
:104F4000387801F055FA3F4B1B78002B41D03B8855
:104F50007E2B3ED83C4EDFF8F4903268D9F8001032
:104F6000521A0F2A2FD9013399B2394B3980188838
:104F7000002845D0C9B2C0B204F068F9354F98F89E
:104F800000303268C9F800203B70FEF711BE7F2167
:104F9000FFF7E5BB99F8000004F0D4F916E72A60A2
:104FA000FFF727B9264B284E19886A2004F0C2FB68
:104FB00098F800303B70FEF7FBBD8B42A8BF0B4654
:104FC000FEF7F3BF204E234F98F800303B70FEF7FA
:104FD000EFBD214B1B78002BF4D039880029F1D08C
:104FE000194EDFF868903368D9F800209B1A0F2B10
:104FF000E9D9174B0139188889B239800028B9D10D
:10500000C8B204F0D7F9B9E70123FFF709B80027C0
:105010000770FEF7A4BE00230370FEF7CBBE00BFEF
:10502000ABAAAAAA4889FF1F5C8AFF1F9195FF1FA0
:105030006498FF1F1D98FF1FB197FF1FCE98FF1F99
:10504000B897FF1F9595FF1FF096FF1FD497FF1F7E
:10505000B697FF1FAD97FF1F9495FF1F4FF0000CF1
:1050600087F800C0FEF78FBE41F6FF70FEF7AEBFB7
:1050700004F068F9FEF739BF0021422004F0E6F899
:10508000C0E50021402004F0E1F8B6E599F8000001
:1050900004F058F9ACE599F80000FBF7F7FDA2E53C
:1050A00099F80030A3F10C007F2840F39080B04ABB
:1050B0008B3BA2FB0312D20802EB4202A3EB82035A
:1050C00003F17300C0B204F03DF99AF80030002BF0
:1050D0003FF484ADA74F3B78002B3FF47FADDFF862
:1050E00098A2A34E4FF0000811E0A6FB0213DB08C4
:1050F00003EB4303A2EB830202F17300C0B204F09E
:1051000021F93B7808F1010843457FF767AD5AF86C
:10511000042F99F800301344A3F10C007F28A3F169
:105120008B02E2DC0028C3F10C03E7DAA6FB0312D2
:10513000D20802EB4202A3EB8203C3F10C00DDE7CD
:105140008E4B02938E4B019350E60028BFF6F2ADD2
:10515000874AC3F10C03A2FB0312D20802EB4202FE
:10516000A3EB8203C3F10C00E4E50028BFF686AE92
:105170007F4AC3F10C03A2FB0312D20802EB4202E6
:10518000A3EB8203C3F10C0078E67F23FEF748BF50
:10519000039EFEF76ABF4E46DDF80C9012E498427B
:1051A000A8BF1846774B1860FFF738BA0138FFF7E9
:1051B000ACBA734F74480197FEF7B8BD4FF47A4309
:1051C000013BFDD199F8000004F0BCF80EE4002882
:1051D000BFF678AF664AC3F10C03A2FB0312D208F4
:1051E00002EB4202A3EB8203C3F10C006AE701F079
:1051F00045F8FFF77EB80138FEF7E8BE019B1B7843
:10520000002B3EF43CAF8FE6604B1B78002B7EF406
:1052100058AD059BA3F124015D4B81F34701196053
:105220005B20C9B204F012F898F80030032B7EF42A
:1052300046ADDFF8608198F80020002A7CD1564FF7
:105240003B78002B6CD1514E3378002B5CD1534B03
:105250001B78002B4CD1524A1380524B1B7853BB06
:10526000514B7F221A803A7898F8003013433278F5
:1052700013437EF424AD4D4A7F210720138003F0B1
:10528000E5FF7F210B2003F0E1FFFEF718BD434A45
:105290001278E2B1404A1278002A7EF412AD3B4AFD
:1052A0001278002A3EF40DAD3A880A3A3A80404A14
:1052B0001370FEF706BD3C4B00227F2107201A80A9
:1052C00003F0C4FF7F210B2003F0C0FFCBE7324A7D
:1052D0001278002A7EF4F5AC2C4A1278002A3EF4AB
:1052E000F0AC3A88013A3A80314A1370FEF7E9BCD3
:1052F0002B4B01227F2107201A8003F0A7FF7F217B
:105300000B2003F0A3FFA8E7284B04227F210720EE
:105310001A8003F09BFF00210B2003F097FF96E714
:10532000224B02227F2107201A8003F08FFF7F216A
:105330000B2003F08BFF86E71C4A00210720138017
:1053400003F084FF7F210B2003F080FF77E7124AF0
:105350001278002A7FF458AF0C4A1278002A3EF4E3
:10536000B0AC3A8801323A80114A1370FEF7A9BCFA
:10537000ABAAAAAA4889FF1F5C8AFF1FB298FF1F29
:105380009698FF1FD096FF1FA998FF1F9395FF1FA8
:105390006C98FF1F9095FF1F9295FF1F9195FF1F1F
:1053A000A496FF1F9495FF1FCC98FF1FA696FF1F82
:1053B0001E97FF1F38B508F02DFD114806F072FB4F
:1053C000104806F06FFB00254FF07E540E4806F0A3
:1053D00069FB2B46224601210C48FBF73DF82B4682
:1053E000224601210A48FBF737F80A480A4A0B49C6
:1053F0008023002403710460BDE838400BF086BCB4
:10540000C098FF1FBC98FF1FB898FF1FB096FF1FE2
:105410002098FF1F0497FF1F4489FF1FA905000064
:1054200010B50446A4206368198804F083F9E36882
:10543000A620BDE81040198804F07CB903462A2054
:105440005B68198804F076B910B5044622206368B9
:10545000198804F06FF9E3682420BDE8104019882A
:1054600004F068B910B504460A206368198804F08E
:1054700061F9E3680C20BDE81040198804F05AB9BE
:1054800010B5044606206368198804F053F9E368F0
:105490000820BDE81040198804F04CB910B5044646
:1054A00002206368198804F045F9E3680420BDE828
:1054B0001040198804F03EB970B50E4D84B0122624
:1054C00004220123CDE900260446039002932846D6
:1054D0001423102106F024FE062209230293CDE9AD
:1054E0000026039414231021284606F019FE04B068
:1054F00070BD00BF4C99FF1F2DE9F041A14DB5F9DA
:105500000030032B0CD083B3022B4ED0052B79D067
:10551000012B00F0A480042B00F0C680BDE8F081D0
:1055200010200AF035FAC830B0F57A6FA8BF4FF4F2
:105530007A60B0F5FA7FB8BF4FF4FA7000F51673D1
:10554000B3F57A6F904A914C81B2A8BF4FF47A6359
:1055500022201180238004F0EDF82188242004F01B
:10556000E9F8B5F90030002BCED10E2008F0C2FBCF
:1055700040F6FF73C8309842A8BF184620EAE07092
:1055800081B200F2DC509842814CA8BF1846814B92
:1055900020800220198004F0CDF82188042004F036
:1055A000C9F8B5F90030022BB0D101200AF0F0F9AA
:1055B000044600200AF0ECF98442B8BF044604F126
:1055C000C800B0F57A6FA8BF4FF47A60B0F5FA7FE3
:1055D000B8BF4FF4FA7000F54873B3F57A6F6E4AAE
:1055E0006E4CA8BF4FF47A6381B20A2011802380E9
:1055F00004F0A0F821880C2004F09CF8B5F90030E4
:10560000052B85D10F200AF0C3F9C0F53F610431A5
:10561000B1F5FA6FA8BF4FF4FA61C0F54363B1F575
:10562000AF6FB8BF4FF4AF61B3F5FA6FA8BF4FF4D7
:10563000FA63B3F5AF6F5A4A5A4CB8BF4FF4AF6331
:1056400089B2A4201180238004F074F82188A62058
:1056500004F070F8B5F90030012B7FF45CAF152031
:1056600008F048FB41F25C2300F548709842A8BF5F
:105670001846B0F52F7FB8BF4FF42F7081B200F5F8
:1056800096609842484CA8BF1846484B2080062098
:10569000198004F04FF82188082004F04BF8B5F980
:1056A0000030042B7FF43AAFDFF80481414E424DC5
:1056B00000274FF4AF74F9B2304606F0F7F958F806
:1056C000043BC3F5967303FB00F085FB0023C01772
:1056D000C0EB6310844207F10107A8BF0446062F00
:1056E000E9D1DFF8D880364E334D0027F9B2304685
:1056F00006F0DCF958F8043BC3F5967303FB00F0A1
:1057000085FB0023C017C0EB6310844207F101073B
:10571000A8BF04460C2FE9D1DFF8A8802A4E264DF9
:105720000027F9B2304606F0C1F958F8043BC3F53A
:10573000967303FB00F085FB0023C017C0EB6310DA
:10574000844207F10107A8BF04460C2FE9D1143C9D
:10575000322CB8BF322440F23A72A4F5AF7302FB88
:1057600003F3963B85FB03251848194ADB17A1B2C2
:10577000A3EB651332330180BDE8F0412A201360AA
:1057800003F0D8BFF898FF1F3697FF1F3497FF1F0D
:10579000D496FF1FD696FF1F4A98FF1F4898FF1FF9
:1057A000C897FF1FBE97FF1F5898FF1F5A98FF1FEB
:1057B000B489FF1FC098FF1FB5814E1B8489FF1F4E
:1057C000BC98FF1F5489FF1FB898FF1FEE96FF1F5C
:1057D000888AFF1F2DE9F041214D82B0012602B2D7
:1057E00084B2CDE9002628467823192106F000FB73
:1057F00004F10C0212B2CDE90026284604EB06089B
:1058000078231921A71C06F0F3FA0FFA88F83FB2A3
:1058100019230097194642462846019606F0E8FAF1
:1058200078234246009719462846019604F10A0754
:105830000B3406F0DDFA3FB224B2782319463A461B
:105840002846CDE9004606F0D3FA1923CDE90046F3
:105850003A461946284606F0CBFA02B0BDE8F08178
:105860004C99FF1FF0B5164E164FB6F90030834223
:1058700083B00D4603D1B7F900308B421DD0002311
:10588000009304B25B23104826221C2107F0D2F8B3
:1058900001230D482622214606F066FF6B1C04D129
:1058A000012034803D8003B0F0BD2DB206480123B5
:1058B0002622294606F058FFF2E7002003B0F0BD8B
:1058C000048BFF1F068BFF1F4C99FF1F2DE9F04330
:1058D000C64D2B7883B01BB1C54B4FF6FF721A80B3
:1058E000C44BB3F900303BB1013B042B1AD8DFE8BD
:1058F00003F04972A6C62600BF4BC0481B685A2257
:1059000083F30C0302FB03F303F2FF73A0FB0320FA
:105910001B1A00EB5300C00A4FF0FF311C30FFF799
:10592000A1FF20B900232B7003B0BDE8F083B44879
:1059300007F0D8FC00232B7003B0BDE8F0830F20E4
:105940000AF026F8C0F53B600830B0F5FA6FA8BF42
:105950004FF4FA60B0F5AF6FB8BF4FF4AF605A23A1
:10596000A0F5AF6003FB00F0A64B00F59670A3FB1B
:10597000003080094FF0FF311C30FFF773FF002823
:10598000D0D0D4E7A04B1B78002B00F02A81152043
:1059900008F0B0F9024641F25C239342A8BF1346D7
:1059A000B3F52F7FB8BF4FF42F735A21A3F52F7390
:1059B00001FB03F39549964C03F5FA63A1FB03132E
:1059C0001B0A4FF0FF3103F11C002260FFF74AFF72
:1059D0000028A7D0ABE78F4B8F4A1B681268B3F53E
:1059E0007A6FA8BF4FF47A63B2F57A6FA8BF4FF40D
:1059F0007A62B3F5FA7FB8BF4FF4FA73B2F5FA7F63
:105A0000B8BF4FF4FA72A3F5FA70A2F5FA715A23EF
:105A100003FB00F003FB01F1804B01F2D66100F2C1
:105A2000D660A3FB0121A3FB0030C90AC00A1C31C8
:105A30001C30FFF717FF00283FF474AF77E7784B6F
:105A4000764A1B68B3F57A6FA8BF4FF47A63B3F553
:105A5000FA7FB8BF4FF4FA735A21A3F5FA7001FB2D
:105A600000F000F2D660A2FB0020C00A4FF0FF3128
:105A70001C30FFF7F7FE00283FF454AF57E725220C
:105A80000024CDE900245E48664E674FDFF89C9104
:105A9000DFF8708176231C2106F0AAF918E048454A
:105AA00026DC88FB0023C117C1EB631132395A236E
:105AB00003FB01F19631A8FB013149091C3109B200
:105AC00001231C444E48252206F04EFE0C2C11D01A
:105AD000E1B2384605F0EAFF56F8043BC3F5967389
